:100000000C94D30C0C94FB0C0C94FB0C0C94FB0C7C
:100010000C94FB0C0C94FB0C0C94FB0C0C94FB0C44
:100020000C94FB0C0C94FB0C0C9423210C94952148
:100030000C94FB0C0C94FB0C0C94FB0C0C94FB0C24
:100040000C94FB0C0C94FB0C0C94FB0C0C94FB0C14
:100050000C94FB0C0C94FB0C0C94FB0C0C9457199B
:100060000C94FB0C0C94FB0C0C94FB0C0C94FB0CF4
:100070000C94FB0C0C94FB0C0C94FB0C0C94FB0CE4
:100080000C94591A0C94FB0C0C94FB0C0C94FB0C68
:100090000C94FB0C0C94FB0C0C94FB0C0C94FB0CC4
:1000A0000C94FB0C0C94FB0C0C94FB0C392746278E
:1000B0007F27E328092928292B2938295A29E129CA
:1000C000A62B28290D09000820002488205420127E
:1000D00040040000000000000000000000000000DC
:1000E0000D09000822880008800420029004000006
:1000F0000000000000000000000000000D09019059
:100100000208000004000080110008000000000147
:1001100000000000000001000D0902400000000482
:10012000000040010000020100000000000000008B
:1001300000000001F7000900A5000A0000001E00F1
:10014000F7000900A5000A0000001E00F7000900E2
:10015000A5000A0000001E00F7000900A5000A0023
:100160000080F7000900A5000A0000001E00F7004B
:100170000900A5000A0000001E00F7000900A50004
:100180000A000080F7000900A5000A0000001E0018
:10019000F7000900A5000A000080F7000900A5008B
:1001A0000A0000800E077F5D6B776B5D7F7F5B4D84
:1001B000555B7F0021100101F929291101F129293D
:1001C000F101798181790191A9A94901F9A9A98947
:1001D00001F989897101010404040404040404047C
:1001E00004040404040404040404040404040404CF
:1001F0000404040404040404830028000000F4013F
:100200000080250B0101798141817901F12929F1D2
:10021000017981611901F9A9A9890101010101018E
:1002200001010101010101010104040404040404A9
:10023000040404040404040404040404040404047E
:100240000404040404040404040404040404330B38
:1002500001017189A9E901F9A9A989010909F90926
:100260000901010101F92929D101F9A9A98901F19E
:100270002929F101F98989710199A1A17901010166
:10028000B90101040404040404040404040404047F
:10029000040404040404040404040404040404041E
:1002A000040404040404040404040404040404040E
:1002B0000404040404040505040E1F1F0A050801B4
:1002C000010301070505151F0A0E040504060D09A3
:1002D00009060E040406040F0204090606090409AF
:1002E0000604040F0506070807010F0609070106A3
:1002F000020204080F060906090603040A09060893
:100300004000FF00000000000000FF0000000000AF
:100310000000FF00000000000000FF0000000000DF
:100320000000FF00000000000000FF0000000000CF
:100330000000FF00000000000000FF0000000000BF
:10034000000108000000E0F0F8FCFEFFFEFCF8F001
:10035000E000000207070F070B1F3F1F0B070F07E7
:1003600007020F10000000E010E8341A34E810E033
:100370000000000002030603050B170B050306032C
:1003800002000000E0F0F8FCFEFFFEFCF8F0E000E8
:10039000000207070F1F3F7FFF7F3F1F0F07070266
:1003A0000F10000000E010E8341A34E810E00000FC
:1003B00000000203060B152B472B150B060302004A
:1003C0000000E0F0F8FCFEFFFEFCF8F0E0000002A8
:1003D00007070F070307070703070F0707020F1099
:1003E000000000E010E8341A34E810E000000000DB
:1003F00002030603010303030103060302000000D6
:1004000000C0E0F0F8FCF8F0E0C000000020707ED2
:10041000FF7F3F7F7F7F3F7FFF7E70200F100000B8
:10042000000040A050A850A0400000000000203074
:100430006E311E3331331E316E30200000002070CB
:10044000B8DCEEFFFEFCF87020000020707EFF7F1D
:100450003F7F7F7F3F7FFF7E70200F1000000020D6
:1004600050A854AA54A850200000000020306E313B
:100470001E3331331E316E3020000A1F0E1F0A0159
:10048000010101387C7CFEFEFEFEFEFEFE7C7C3817
:1004900000000000000000000000000000287C7C3C
:1004A000FE7CFEFFFE7CFE7CFE540000000000008F
:1004B00001000000000000143EFEFFFEFC7CFCFE7C
:1004C000FFFE3E14000000010000000000010000DB
:1004D00000307CFEFFFEFFFEFFFEFFFE7C300000D2
:1004E0000000010000000100000000FFFFFFFFFF0F
:1004F000FFFFFFFFFFFFFF000F0F0F0F0F0F0F0F8B
:100500000F0F0F0F000000FFFFFFFFFFFFFFFF00B7
:10051000000000000707070707070707000000386B
:10052000FE7DFEFEFEFEFEFEFE7DFF2F00000100B2
:1005300000000000000001000054FE7CFE7CFEFF75
:10054000FE7CFE7C7C280000000000000100000012
:1005500000000012BFFFFFFEFCFCFCFEFFFFBF120D
:100560000000010000000100000001000070FAFF1F
:10057000FFFEFF7EFFFEFFFFFA700000000100009B
:1005800000000001000000FFFFFFFFFFFFFFFFFF73
:10059000FFFFFF000F0F0F0F0F0F0F0F0F0F0F0FAA
:1005A000000000FFFFFFFFFFFFFFFF000000000053
:1005B0000707070707070707000000081C3E3E3E25
:1005C0001C0800081C3E7F3E3E14000C3E7E3C7E14
:1005D0003E0C001C3E7E3F7E3E1C00183C7EFFFF12
:1005E0007E3C1800FFFFFFFFFF00002A5D3E3E3EFD
:1005F0005D2A00143E3E7F3E1C08002A7F3E7C3E62
:100600007F2A002A7F3E7C3E7F2A00183C7EFFFF27
:100610007E3C1800FFFFFFFFFF0000080800081CD9
:10062000141C08000000081C221C140000000C34DC
:1006300018340C0000001C341A341C00000018246C
:100640004A422418000000543A54000000080800F0
:100650002A1C141C2A000000141C2A1C080000007C
:100660002A1438142A0000002A1438142A00000022
:1006700018244A422418000000543A54000000AFE5
:10068000001600AF001600AF0016000080DC000965
:100690000093000A0083000600AF000A0000808378
:1006A0000028000000140006012800000014000BC0
:1006B000022800000014000080DC00090093000AFA
:1006C0000083000600AF000A00F7000900A5000A39
:1006D00000DC00090093000A0083000600AF000A56
:1006E00000F7000900A5000A00DC00090093000AD9
:1006F0000083000600AF000A00F7000900A5000A09
:10070000000080AF00030026010400B8010400A52A
:100710000001000080DC00090000800505000A04DB
:100720000A00DC00090093000A0083000600AF0005
:100730000A00F7000900A5000A00DC000900930088
:100740000A0083000600AF000A00F7000900A500B8
:100750000A00DC00090093000A0083000600AF00D5
:100760000A00F7000900A5000A0000800B02320011
:10077000830064004100C80000800B080E987D369D
:100780003C3C3C367D980E0B0870187DB6BC3CBCDA
:10079000B67D1870D5F08D14A1C881CFD9F1AF20E6
:1007A000001F08031C700F00304870007C087008A0
:1007B0007000F848300074007810007A003048006B
:1007C000586816077F090175007F007C0870087063
:1007D00000304830027F02304858050A01041040BA
:1007E00000000000000100041040000000000001B3
:1007F0000100104000000000000101040040000062
:1008000000000001010410000000000000010104CC
:1008100010400000000000000D0A000001071F7CCE
:10082000FF3F077168C81C000000000000000003C3
:10083000010100003510000080E0781E070303036B
:1008400083E37C0F0909FFFB00F8FFFF1F1901007C
:10085000FF010101F2FC003FFCF101033FFDF180CB
:10086000020F1919191B1A70E08000082EAFADACE9
:10087000ACACA4802CAF03000000AFAF00AEAFAFB4
:10088000AFACACAC00AFACACACAFA70000AFAFAEA0
:100890000000AFAFAF2C0003AB06AEAEAEAF2F067D
:1008A00003061F0E040306040E1F03071F051F1F68
:1008B000151B1F11111F110E1F15111F05011F11EF
:1008C0001D1F041F001F0010101F1F041B1F1010EE
:1008D0001F061F1F011F1F111F1F05071F311F1F8D
:1008E000051B17151D011F011F101F0F100F1F0CD7
:1008F0001F1B041B071C071915131F111F001F00C6
:100900001D151711151F07041F17151D1F151D0194
:10091000011F1F151F17151F0017000020005D1273
:100920000000000080C0F0383C3EB2F0781CC6F2F7
:100930007C0E82E0781C06C6E6E6E60682F87E3685
:100940003030F0FE06000000903C26262626E6CE3B
:100950008C00FCF606060606060C000CFEF282026F
:1009600002063CF0C61E7AE2E2627C7060C28E1E15
:100970007EE6E6E664400000000000000000185C2F
:100980004E030100185C4F03185C5F4F03005E5F6D
:100990005F5C5C5C5C0C07005C5F070000005F5FF5
:1009A00003000000004F5F585858585F5F4F000F1A
:1009B0005F5C58585858585E5C00070F5858585894
:1009C000585F5E0001475E18000000034F5C110392
:1009D0004F5E5C5C5C5C5C58100000000001000035
:1009E00000000001000000010101000001010101FF
:1009F00001010000000101000000000101000000F1
:100A000000000001010101010101010000010101DB
:100A100001010101010000000001010101010100CB
:100A200000010100000000000101000001010101BE
:100A3000010101010000007D1C0000000000000019
:100A4000000000C0F07C1E0E0606060626363E1E7E
:100A500006C0F83E06060606C6FEFEFE0E00F0FEC6
:100A6000FEFEFEF8800080C0F0FCFEFEFE0000FEF0
:100A7000FEFE060606060606000000FCFEFEFE025E
:100A80000202067E7EFCE0001E7EFEFEFCE0000010
:100A900000FEFEFE0000003EFEFEC606060600004A
:100AA000063EFAE2820202041C78C08080800000C8
:100AB0000000000000000000000000C0E0F83E0F51
:100AC000070100000486E6FEFE7E0EC0F8FEFF076A
:100AD0000606060606FFFFFF0300FCFFFF7F07FF79
:100AE000FFFFFE7F0FFFFFFFFFFF0000FFFFFF0E76
:100AF0000E0E0E0C00000000FFFFFFFF00000000C4
:100B00000000FFFFFC0000030F7FFFFFF8E0FFFF86
:100B1000FFF80000007FFFFFFE8E0E0E0C000003AA
:100B20003FFFFEFEE282020303030F7FFFFEF8E0B9
:100B30000000000000505C5F5F59585858585858E2
:100B4000585E5F5F4F03185E5F5F47000000000064
:100B5000005F5F5F03005F5F5F5F00005F5F5F07D5
:100B60000000015F5F5F5F00005F5F5F585858588B
:100B700058580000000F5F5F5F5858585858585F2A
:100B80005F0F0000000000034F5F5F5F5F5F5F006B
:100B90000000004F5F5F5F5C585858585800014F85
:100BA0005F5F5F1C0000000000475F5F5F5F1C002D
:100BB00000000001050505050505050505050505F8
:100BC00005050504000105050504000000000505F4
:100BD00005000005050505000005050500000000ED
:100BE00005050505000005050505050505050500C4
:100BF00000000005050505050505050505050000BE
:100C000000000000000505050505010000000000CA
:100C10000505050505050505010004050505010097
:100C2000000000000405050505010000000B05118A
:100C30000A040A110000121915120D0C0038287C44
:100C40006C7C6C7C6C7C283800000000000000008C
:100C500000000000000000282844386CC66C3844AE
:100C60002854000000000000000000000000000008
:100C700000142CF25428282854F22C1400000000F0
:100C80000000000000000000000000304C1AE47E6C
:100C90006C7EE41A4C3000000000000000000000F0
:100CA000000000000060D824140A0A0404986000C0
:100CB0000000000102020404020201000000000022
:100CC00000402CFAF22C400000000000000002015D
:100CD00000000102000000000D0C1028BA6C7C6CB2
:100CE0007C6C7C6CBA281000000000000000000042
:100CF0000000000000542844386CD66C3844282882
:100D000000000000000000000000000000000012D1
:100D1000AA725428A8285472AA12000000000000E9
:100D2000000000000000000000700ADA247E2C7E23
:100D300024DA0A700000000000000000000000003B
:100D400000000060D824140A0A040498600000001F
:100D50000001020204040202010000000000004041
:100D60002CFAF22C400000000000000002010000FC
:100D700001020000000004050E11190E00121F10E0
:100D8000121915120A11150A06051F04171515095F
:100D90000E151508011905030A15150A121509067D
:100DA0000B088000000000800000000080550F004C
:100DB00000800030382C26E2E2E202CEE4180C0279
:100DC000020282E2300C0202E27E06F0FE22223AA9
:100DD000FCC000FE262222020000000002020E7E5D
:100DE000FEF202007CFAF2121EF8861AF2F2B23417
:100DF00038C28E3EF8E2861E3E76E2E2A020000077
:100E00000000000000030A2A2A2A2A2B2B2920018D
:100E10000B2B2B2B2B21082B2A2A2A2A2B2B002B9E
:100E20002B2B00282B2B03282B2B2A2A2A000000EF
:100E300000000000002B2B2B00002B2B0000002BB0
:100E40002A08232B2A2A2B0B22282B2B2A2A0A2278
:100E5000292B2B2A2A2A0A02002010007828380081
:100E600078283840007868480058686800586868F2
:100E70000000FC02722A2A7202FC0000000000003E
:100E80000000000000000000000000000000000062
:100E900000000001010101010100005E30000000BE
:100EA0000000000000000000000000000000000042
:100EB0000000000000000000000000C0F0FCFE1E6A
:100EC000C0F0FC0EA000000000000000FEFE00FECE
:100ED000FEC2820A2AAAAA82063EF8E61EFAE28228
:100EE0000A22A2A68E9C3870E0C08000000000009C
:100EF00000000000000000000000000000000000F2
:100F000000000000000000000000000000000C2EA7
:100F1000AFADACACACACACACAFAF870320A6AFAF61
:100F2000AFAEACACACACACACACACAF07A0AFAFAFA1
:100F3000A3A80000020AAAA0A0AFAF0003AFAEAC06
:100F4000ACACACACACACACAD2F0F060000000000FC
:100F50000000000000000000000000000000000091
:100F6000000000000000000000000000000000027F
:100F70000A0A2A2A2A2A2A2A2A2A280002020A0ACD
:100F80002A2A2A2A2A2A2A2A2A002A2A2A2A2A2AEB
:100F9000000000002A2A2A2A2A00002A2A2A2A2AAD
:100FA0002A0A020200000000000000000000000009
:100FB00000000000000000000000000000C0E0F0A1
:100FC000F8FC7E6763636363636363632303038384
:100FD000F1FCFFFFC7000080E0FCFFE36363636395
:100FE000636363637F7E6060E0C080003C7F7F63FB
:100FF00063636363636363636363E3E3EFEEE4C1CB
:10100000831313531303474F1F3B73E3C3C3820080
:1010100000000000000010181C1E1F1F0F47415049
:101020005044041454545454540501181E1F1F1FD7
:101030001F074100181F1F1F1F034050400014547A
:10104000545454540000001F1F1F004F1F1C181938
:101050001919191919191918181F1F1F1F1F1F4EA9
:101060000000505555555554545153474F1F1E1CA1
:101070001810000000000000000000000001010145
:101080000101000001050504041101051555555421
:10109000400105051515145041051554504105052D
:1010A0000505000055555501000055555555555538
:1010B00055555555555555555555150501100405AA
:1010C0000505010101010100000000000000000011
:1010D0000083005601000055008B005500000055AC
:1010E000008B005500000055008B00550000005596
:1010F0000083005601000055008B0055000000558C
:10110000008B005500000055008B00550000005575
:1011100000830056010080060155000000550006BE
:10112000015500000055000601550000005500065D
:10113000015500000055001501550000005500063E
:101140000155000000AC01060155000000550006E5
:10115000015500000055000601550000005500062D
:10116000015500000055001501550000005500060E
:101170000155000000AC010601AB000000AB000609
:1011800001AB000000AB00150156010000AC0106E8
:1011900001550000005500060155000000550006ED
:1011A00001550000005500060155000000550015CE
:1011B00001550000005500060155000000AC010675
:1011C00001550000005500060155000000550006BD
:1011D000015500000055000601550000005500159E
:1011E00001550000005500060155000000AC010645
:1011F000015500000055001501550000005500265E
:10120000015500000055001501550000005500066D
:10121000015500008000000000003E5B4F5B3E3E39
:101220006B4F6B3E1C3E7C3E1C183C7E3C181C5792
:101230007D571C1C5E7F5E1C00183C1800FFE7C336
:10124000E7FF0018241800FFE7DBE7FF30483A0605
:101250000E2629792926407F050507407F05253F71
:101260005A3CE73C5A7F3E1C1C08081C1C3E7F145D
:10127000227F22145F5F005F5F06097F017F0066A7
:1012800089956A606060606094A2FFA29408047E01
:10129000040810207E201008082A1C08081C2A08B0
:1012A000081E101010100C1E0C1E0C30383E38306A
:1012B000060E3E0E06000000000000005F00000069
:1012C00007000700147F147F14242A7F2A12231397
:1012D00008646236495620500008070300001C22AB
:1012E00041000041221C002A1C7F1C2A08083E08DD
:1012F00008008070300008080808080000606000DE
:1013000020100804023E5149453E00427F400072D1
:10131000494949462141494D331814127F10274548
:101320004545393C4A494931412111090736494966
:101330004936464949291E00001400000040340087
:10134000000008142241141414141400412214083B
:1013500002015909063E415D594E7C1211127C7FF3
:10136000494949363E414141227F4141413E7F4901
:101370004949417F090909013E414151737F0808EC
:10138000087F00417F41002040413F017F08142237
:10139000417F404040407F021C027F7F0408107F55
:1013A0003E4141413E7F090909063E4151215E7F90
:1013B00009192946264949493203017F01033F4063
:1013C00040403F1F2040201F3F4038403F631408EB
:1013D000146303047804036159494D43007F41417C
:1013E000410204081020004141417F04020102042F
:1013F0004040404040000307080020545478407F9C
:10140000284444383844444428384444287F3854D5
:1014100054541800087E090218A4A49C787F08047C
:10142000047800447D40002040403D007F10284467
:101430000000417F40007C047804787C0804047834
:101440003844444438FC1824241818242418FC7CFC
:1014500008040408485454542404043F44243C40E1
:1014600040207C1C2040201C3C4030403C44281044
:1014700028444C9090907C4464544C44000836417D
:10148000000000770000004136080002010204025B
:101490003C2623263C1EA1A161123A4040207A3806
:1014A0005454555921555579412154547841215569
:1014B00054784020545579400C1E527212395555BB
:1014C0005559395454545939555454580000457C91
:1014D000410002457D420001457C40F0292429F06D
:1014E000F0282528F07C545545002054547C547C29
:1014F0000A097F4932494949323248484832324A1A
:101500004848303A4141217A3A42402078009DA033
:10151000A07D39444444393D4040403D3C24FF24B3
:1015200024487E4943662B2FFC2F2BFF0929F620E8
:10153000C0887E090320545479410000447D413025
:1015400048484A32384040227A007A0A0A727D0DB1
:1015500019317D2629292F28262929292630484D69
:101560004020380808080808080808382F10C8ACB8
:10157000BA2F102834FA00007B000008142A142225
:1015800022142A14089500220095AA005500AAAA40
:1015900055AA55AA000000FF00101010FF001414F7
:1015A00014FF001010FF00FF1010F010F0141414BE
:1015B000FC001414F700FF0000FF00FF1414F404F3
:1015C000FC141417101F10101F101F1414141F00E8
:1015D000101010F0000000001F101010101F10104D
:1015E0001010F010000000FF10101010101010105C
:1015F00010FF10000000FF140000FF00FF00001F9C
:1016000010170000FC04F414141710171414F40439
:10161000F40000FF00F714141414141414F700F766
:10162000141414171410101F101F141414F4141091
:1016300010F010F000001F101F0000001F14000029
:1016400000FC140000F010F01010FF10FF14141430
:10165000FF141010101F00000000F010FFFFFFFF2C
:10166000FFF0F0F0F0F0FFFFFF0000000000FFFFD0
:101670000F0F0F0F0F38444438447C2A2A3E147E43
:1016800002020606027E027E026355494163384427
:10169000443C04407E201E2006027E020299A5E7FB
:1016A000A5991C2A492A1C4C7201724C304A4D4D96
:1016B000303048784830BC625A463D3E494949007E
:1016C0007E0101017E2A2A2A2A2A44445F4444409A
:1016D000514A444040444A51400000FF0103E08029
:1016E000FF000008086B6B083612362436060F0917
:1016F0000F06000018180000001010003040FF0115
:1017000001001F01011E00191D1712003C3C3C3C4A
:10171000000000000001020408102040800104B510
:10172000040202020104B00E0202020104C70E020A
:1017300002020403B50402020203B5180202020009
:101740004B04FE0202004B18FE02020402B5040222
:10175000020202B518020202034B04FE0202034B0E
:1017600018FE02020401B50402020201B5180202C9
:1017700002024B04FE0202024B18FE02020400B5F4
:101780000402020200B518020202014B04FE02022A
:10179000014B18FE02020203390E02020203B00ED0
:1017A0000202020202390E02020202B00E0202021C
:1017B0000201390E02020201B00E020202020039D9
:1017C0000E02020200B00E0202020203B00E02027A
:1017D0000203C70E0202020202B00E02020202C798
:1017E0000E0202020201B00E02020201C70E020244
:1017F000020200B00E02020200C70E02020204033F
:10180000B50402020103B518020201004B04FE02F6
:1018100001004B18FE02010402B50402020102B5E8
:1018200018020201034B04FE0201034B18FE0201E1
:101830000401B50402020101B518020201024B04C1
:10184000FE0201024B18FE02010400B5040202016F
:1018500000B518020201014B04FE0201014B18FE03
:1018600002010203390E02020103B00E020201025C
:1018700002390E02020102B00E0202010201390E0B
:1018800002020101B00E0202010200390E02020141
:1018900000B00E0202010203B00E02020103C70EE5
:1018A0000202010202B00E02020102C70E02020190
:1018B0000201B00E02020101C70E0202010200B0D5
:1018C0000E02020100C70E0202010401B00E020264
:1018D0000001D10E020200035018FD02000371182E
:1018E000FD02000402B00E02020002D10E0202004C
:1018F000005018FD0200007118FD02000401B00E36
:1019000002020001D10E02020003B018020200031D
:10191000D1180202000400B00E02020000D10E0233
:10192000020002B01802020002D118020200080BE5
:101930000002020201000904000001020200000589
:1019400024001001052401010104240206052406D7
:1019500000010705810310004009040100020A008C
:101960000000070502024000000705830240000056
:101970000403090412010002EF02014041233680F2
:1019800000010102030141726475696E6F204C4CC5
:10199000430041726475696E6F204C656F6E6172B1
:1019A000646F0000252C11241FBECFEFDAE0DEBFEC
:1019B000CDBF12E0A0E0B1E0E4E9FBE502C0059094
:1019C0000D92AC3BB107D9F728E0ACEBB2E001C017
:1019D0001D92A130B207E1F71CE0C3EDDCE004C0CA
:1019E0002197FE010E94BD2DC23DD107C9F70E947B
:1019F0001D250C94C82D0C9400002F923F924F92FD
:101A00005F926F927F928F929F92AF92BF92CF928E
:101A1000DF92EF92FF920F931F93CF93DF93CDB797
:101A2000DEB7EF970FB6F894DEBF0FBECDBF85E0EF
:101A3000E1E1F1E0DE019F9601900D928A95E1F7D8
:101A40004091C5024B30A9F483E2E6E1F1E0DE010A
:101A5000119601900D928A95E1F7A0906E0727E00C
:101A6000A29E50011124F2E0EF2EF12CA2E08A2E6A
:101A70005CC120916307822F022E000C990B97FF07
:101A800003C0919581959109FE01E80FF11D87FD35
:101A9000FA959091BD0287A5981749F08091BD02F3
:101AA0008F5F8093BD02443009F043C0CDCF121642
:101AB00014F08FEF01C081E030916E07082E000C0A
:101AC000990B830F911D37FD9A9565E070E00E9498
:101AD000A92D97FD8B5F80936E071092BD02822F18
:101AE00027FD8F5F859520E030E0F901E250F94F46
:101AF0009581953041F49381980F99370CF098E7D0
:101B000097FD90E09383285F3F4F2036310569F7BA
:101B1000E1EEF6E09081992331F0980F913410F4C2
:101B2000908301C01082339636E0EF3FF30791F7C0
:101B3000B5CF80916407909165070196803243E0AC
:101B4000940729F090936507809364070BC0109267
:101B500065071092640780916007873018F48F5FE3
:101B6000809360078091780790917907009729F01A
:101B7000019790937907809378072091810790913E
:101B80008207822F68E470E00E94952D892B39F43A
:101B900090916107992319F091509093610720FD6E
:101BA00053CF0EEF16E071E0E72E77E0F72EE5E079
:101BB000CE2EE7E0DE2E560152E0A51AB108D5017F
:101BC0008C91853009F0A3C0F6018291882311F031
:101BD00081508083F801808190E065E0959587953C
:101BE0006A95E1F7813009F130F08230C1F183303C
:101BF00009F44FC075C0C8010E94AD2487FF0AC018
:101C0000D80111962D913C911297213B3F4F0CF03A
:101C1000A3C6B1C6882309F4AEC6F801218132817A
:101C2000203531050CF498C6A6C6C8010E94AD2423
:101C300087FF08C0F80121813281213B3F4F0CF022
:101C4000B9C6CCC6882309F4C9C6D80111962D910E
:101C50003C911297203531050CF4ACC6BFC6C801C3
:101C60000E94AD2487FF0AC0D80111962D913C91A6
:101C70001297213B3F4F0CF0CFC6E9C6882309F4E9
:101C8000E6C6F80121813281203531050CF4C4C645
:101C9000DEC6D6018C918F5F843011F08C9302C028
:101CA000F6011082D6018C91833088F5C8010E941C
:101CB000AD2487FF08C0F80121813281213B3F4FCD
:101CC0000CF0CEC6E1C6882309F4DEC6D801119611
:101CD0002D913C911297203531050CF4C1C6D4C624
:101CE000C8010E94AD24D80111962D913C91129704
:101CF000280F311D87FD3A9512963C932E9311972C
:101D0000C8010E94A524F7019081890F8083085F94
:101D10001F4FF8E0EF0EF11C28E0C20ED11C37E097
:101D20000E35130709F047CF8FCE9E2CF701EA0D31
:101D3000FB1D329741E050E04C0F5D1FE40FF51F93
:101D400020812C5FC70195958795182FC22ED12C25
:101D5000082D0E198EEF8E0D080F612F70E021E017
:101D6000A6018EE797E00E94DA24190D802F810FDB
:101D7000813898F35FEFE51AF50A69E0E616F10499
:101D8000A1F62EEFA22E26E0B22E33E0832E37E00E
:101D9000932E240135014EE1242E312CC3010E94E3
:101DA0005F24882309F483C0D201EC91E53009F067
:101DB00063C0F2013297E081E851E83268F5F0E063
:101DC000E25CFE4F8081813061F028F0823079F052
:101DD0008330C1F521C020E00FE714E040E854E073
:101DE00036C020E00AE714E04BE157E030C08091B4
:101DF000810790918207B1010E94952D0F9728F0DD
:101E00000BEB15E04BE156E004C00BEE15E04DE4A2
:101E100056E0F301208114C08091810790918207E0
:101E2000B1010E94952D0F9728F003E814E04AE3D2
:101E30005CE004C00FE115E048ED5CE0D3012C91BB
:101E40002F7005C020E000E010E040E050E0C3014A
:101E50002FAF4CAF5EAF0E943524F82EC3010E9415
:101E60003D246F2D70E0CC24C3942FADE22E4CADF9
:101E70005EAD0E94CC1A71C0E150E43040F4F0E055
:101E8000EE0FFF1FE259FE4F0081118102C000E0FA
:101E900010E0C3010E943524F82EC3010E943D24A6
:101EA0006F2D70E020E0A8010E94F71C56C0F201DF
:101EB0008081853009F051C0C3010E943524182F5C
:101EC00080EC810F893308F00FC6C3010E943D24C6
:101ED00097FF1EC040E06BE370E080E090E00E945E
:101EE000671D21E043E06CE370E080E090E00E9439
:101EF000032021E043E06FE370E080E090E00E9487
:101F0000241D40E06FE370E084E090E00E94671DD4
:101F1000C3010E943D24883791050CF4C7C540E0F9
:101F20006BE370E087E790E00E94671D21E043E0EB
:101F30006CE370E087E790E00E94032021E043E03B
:101F40006FE370E084E790E00E94241D40E06FE3BF
:101F500070E083E790E00E94671DF8E06F0E711C4F
:101F600028E0420E511C3EE5631637E0730609F087
:101F700015CF85E0E9E3F1E0DE019A9601900D923C
:101F80008A95E1F780916307282F082E000C330B08
:101F900037FF03C0319521953109EAE2F0E0EC0FFB
:101FA000FD1FE20FF11D27FDFA952081E0916607E4
:101FB000EF3009F059C0882359F11CF48C3F24F408
:101FC00068C0853084F165C0622F70E08091810720
:101FD000909182070E94952D622F0E94892D26954F
:101FE00080915F07CC24C394E12C921730F40CE36A
:101FF00014E020E04AE554E005C00EEF13E020E0D5
:102000004CE154E06DE270E090E00E94CC1A41C0D7
:1020100080915F07CC24C394E12C00EC13E020E016
:102020004EED53E01EC0622F70E0809181079091C9
:1020300082070E94952D622F0E94892D26958091FE
:102040005F07CC24C394E12C921730F402E813E02C
:1020500020E040EA53E005C004E413E020E042E65B
:1020600053E061E370E0D0CFEB50E43040F4F0E0B7
:10207000EE0FFF1FEA59FE4F4081518102C041E43B
:1020800053E080915F0720E061E370E090E00E9400
:10209000F71C6091DE06662341F070E08091DD065A
:1020A00021E045E090E00E940320E12CF12CF701B3
:1020B000E052F94F9181992321F1C92ED12C008151
:1020C00010E0903430F421E042E0B601C8010E94F3
:1020D000241DB6016F5F7F4F603471052CF421E041
:1020E00042E0C8010E94241D21E042E0B601C8017F
:1020F0000E94032021E042E0B601C80101960E943F
:10210000032043E0E40EF11C5EE1E516F10479F6EC
:102110008091C502853021F48091810780FF40C500
:1021200020E04FEF52E060E070E088E790E00E942E
:10213000071D8091C30287FD83C0FE01B49686E02F
:10214000DF011D928A95E9F78091700790917107E0
:102150000AE010E026E02E0FB8010E94952D819331
:10216000CB012E13F9CFFE01BA967F0101E010E0FA
:10217000D7012E917D014BEC52E0B8018BE790E046
:102180000E94071D0B5F1F4F0F31110589F78091CA
:10219000C50220915E078430B9F58091C40280FFAA
:1021A00017C0122F0AEF209F002D1124005C11167A
:1021B0000CF07FC0602F002E000C770B20E044EC69
:1021C00052E08BE790E00E94071D11500A5FEFCFAD
:1021D0000FEF020F81E090E0821B9109182F110F81
:1021E000180F110F105C10160CF063C0612F012E38
:1021F000000C770B20E044EC52E08BE790E00E946B
:10220000071D01501A5FEFCF0FEF020F81E090E042
:10221000821B9109182F110F180F110F105C101647
:102220000CF047C0612F012E000C770B20E044EC2E
:1022300052E08BE790E00E94071D01501A5FEFCF3C
:1022400020E04DEB52E060E070E08BE790E00E9410
:10225000071DF090610705E010E0802F0F1560F476
:10226000803438F421E040E8B8018BE790E00E9428
:10227000241D0E5F1F4FF1CF20E046EB52E062E3DA
:1022800070E08BE790E00E94071D10E080916007EE
:10229000181778F4612F70E0675C7F4F6034710528
:1022A00034F421E040E88BE790E00E94241D1E5F9B
:1022B000EDCF8091C502843009F065C08091C402E1
:1022C000982F9B7F923009F456C0843009F453C094
:1022D00080916F078130D1F480915E078430B1F432
:1022E00001E210E020E04DE065E170E0C8010E94ED
:1022F00003200F5F1F4F06351105A1F720E04EE4C4
:1023000052E066E170E082E290E032C00AE210E062
:1023100020E04DE065E170E0C8010E9403200F5FFE
:102320001F4F01351105A1F720E042E052E066E1C0
:1023300070E08BE290E00E94F71C80916F071AE03A
:10234000612F0E94892D282F46E75DE069E170E04A
:1023500085E490E00E94F71C80916F07612F0E9436
:10236000892D292F46E75DE069E170E08AE490E07D
:102370000E94F71C08C08091C602811104C088EF3A
:1023800091E00E94B91A8091C5028B30B9F400E344
:1023900010E020E04DE065E170E0C8010E940320FC
:1023A0000F5F1F4F01351105A1F720E044EB51E00D
:1023B00066E170E080E390E00E94F71C8091BC022F
:1023C0008F5F813618F48093BC0202C01092BC0269
:1023D0008091780790917907892B29F08091BC0230
:1023E000803308F4E3C3809166078F3011F5809144
:1023F000C5028B30F1F00E941C1D84FF05C00E94B5
:10240000F61E81111092BD020E941C1D87FDD8C3CB
:102410000E941C1D85FDDCC30E941C1D86FDE1C3BE
:102420008091C502843009F0E5C30E941C1D84FF21
:10243000E7C31091C502143059F084E00E94F81FE0
:10244000882331F0153009F406C485E08093C50275
:102450008091C502843009F455C58B3009F452C50A
:102460009091DE069B3010F0955001C090E0909363
:10247000DE0650916307E1EEF6E0FDABECABA0EEBB
:10248000B6E04081442391F16C9112968C911297A1
:10249000282F082E000C330B87FF07C004E0369569
:1024A00027950A95E1F7206F07C0207F332714E0B6
:1024B000359527951A95E1F7260F2C93282F28702C
:1024C000151634F0222311F0806F0AC08F7008C0F7
:1024D000222311F0806F01C08F7087FD8F5F85957B
:1024E000840F80838081813408F0108233961396A4
:1024F00026E0AE3FB20729F6911106C0809166072B
:102500008F3009F0A2C082C0C090DD06D12CA60198
:10251000415051095FAB4EAB492E512CB201655071
:10252000710979AF68AF74E0672E77E0772E0EEF10
:1025300016E0E3E0EE2EE7E0FE2E96012E5F3F4F21
:102540003BAF2AAFD7018C91853041F5F3018081F3
:10255000811124C0C8010E943D249C01C8012FAFF5
:102560003DAF0E943524582FC8015EAF0E941E2443
:10257000482FC8014CAF0E9407242FAD3DAD4CAD94
:102580005EAD6AAD7BAD2617370744F4240F311DCD
:102590006EA97FA9621773070CF45FC3F8E0EF0E12
:1025A000F11C085F1F4F28E0620E711C33E6E31632
:1025B00037E0F30639F601EE16E042E0C40ED11C16
:1025C000D8012C912223D9F0F8013197808190E035
:1025D0008C159D05A4F4AC014E5F5F4FEEA9FFA9D9
:1025E000E417F50764F430E02415350544F42E5F54
:1025F0003F4F48AD59AD421753070CF4DEC30D5F92
:102600001F4F56E00F3F1507D9F678CF40905F0770
:10261000512C72016FEFE61AF60A03E017E07EE034
:10262000470E511C54EF252E33243394C5010E94CC
:102630005F2481110FC0B8E0AB0EB11C085F1F4FC3
:10264000EEE5AE16E7E0BE0689F7809166078F30AB
:1026500031F50DC0D8018C91853069F7C5010E9414
:102660003524C82EB4E1B81708F4B6C3E4CFE0901F
:102670005F07F12C6701FFEFCF1ADF0A01EE16E0CA
:102680002EE0E20EF11C4EE0B42ED8018C918111A7
:1026900012C00D5F1F4FB6E00F3F1B07B1F78091CF
:1026A00081079091820783709927892B09F042C096
:1026B000909172071EC0F8013197208130E0A90186
:1026C0004E5F5F4FC416D50624F72E153F050CF755
:1026D00081538F3008F4DDC3DCCF8083811101C0CA
:1026E0009150F8E08F0E911C23E6821627E09206A7
:1026F00031F0F40180818150843098F7EECF9093CF
:1027000072078091660781508E30A0F4809366072F
:10271000811110C080915E07882319F08150809349
:102720005E0780915E07882311F083E001C086E098
:102730008093C50280916F07880F2AE3280F622FCC
:1027400070E080E090E031F4C12CD12C3CE0A32E6D
:10275000B12C3BC00E94D418672B682B692B09F061
:102760009EC0F2CF6CE070E080E090E00E94D41850
:1027700000E010E0862E912CC801880D991DB5014E
:102780000E94A92D23E0880F991F2A95E1F79C014B
:102790002250394F7901D90115967C9015978C916B
:1027A0008F708430C0F00F5F1F4F0C30110521F780
:1027B000BFEFCB1ADB0AECA9FDA93396FDABECAB5E
:1027C000FAE0CF16D10409F46AC0ACA9BDA98C9176
:1027D0008111EECFC7CFC9010E94A52487FDE3CFA9
:1027E000B5E07B12E0CFF70183818B538D31D8F6B2
:1027F000C7010E943D24182FC7010E941E24869500
:10280000082F010F5601AA0CBB1CC5018C0D9D1D84
:10281000FC01E052F94F4F010083C7010E943524AB
:10282000182FC7010E940724282F30E0210F311DE7
:10283000D40111962C93C7010E94A5248F5FF40147
:10284000928187FD3DC3182F1F70907F192BC50102
:102850008C0D9D1D9C012052394F4901D9011296C2
:102860001C9360905F07712CB7E06B0E711C601AAF
:102870007108C7010E94352461E370E0681B71098B
:10288000C3010E94A92D1F706115710509F01DC3B8
:10289000D40112961C938FE796E00E94B91A80919A
:1028A0006107811105C0809166078F3009F41DC34F
:1028B0008091730790917407009729F00197909386
:1028C0007407809373078091730790917407892B25
:1028D00071F580917207893050F580916F07880FEC
:1028E000865F90917707981710F580917007909107
:1028F0007107893E934008F400C380917807909156
:102900007907892B09F0F9C26FE170E080E090E06F
:102910000E94D418862F0E94451FE82FF0E0EE0F8A
:10292000FF1FEC58FE4F808191810E94B91A80915F
:1029300072078111E7C280916F07982F990F965FF8
:1029400020917707291708F4DDC28F5F80936F0706
:1029500083E08093C502D6C2D80111962D913C9197
:102960001297F901E80FF11D87FDFA951296FC9375
:10297000EE931197CCC9682F6195C8010E948E24EF
:10298000C8010E94A52487FF05C0D7019C91191694
:102990003CF035C0882399F1F701908198377CF598
:1029A000D7016C919091630719162CF587FD8F5F05
:1029B000859521C0F80121813281A901480F511D5F
:1029C00087FD5A9552834183C8010E94A52487FF41
:1029D0000BC0F7016081161674F011C0682F619565
:1029E000C8010E948E24F0CF18164CF4D7016C91C8
:1029F00068375CF004C0860FD7018C9388C9682FB4
:102A00006195C8010E94812482C9909163071916BB
:102A10000CF48595860F19C0F80121813281A90136
:102A2000480F511D87FD5A9552834183C8010E946A
:102A3000A524181694F4D7019C91983774F420912A
:102A4000630712160CF48595890FF7015FC9682F8B
:102A50006195C8010E948E24E9CFD7011C9257C905
:102A6000F80121813281A901480F511D87FD5A9536
:102A700052834183C8010E94A52487FF0BC0F70140
:102A8000908119167CF006C0682F6195C8010E94DC
:102A90008E24F0CFD5011C928091720781508093D3
:102AA000720735C9980FF701908331C9BC016E5F79
:102AB0007F4F20E04FE350E08EE797E00E94DA245A
:102AC000C3010E943D2421E046E06FE370E00396DD
:102AD0000E94241DC3010E943D24BC01675F7F4FFB
:102AE00020E04FE350E057C0C3010E943D2497FF10
:102AF00026C0412F50E04E5F5F4F20E060E070E065
:102B00008EE797E00E94DA24C3010E943524682FE3
:102B100070E06D5F7F4F21E046E080E090E00E9432
:102B20000320C3010E943524482F50E0475F5F4FC8
:102B300020E060E070E08EE797E00E94DA24C301B5
:102B40000E943D24883791050CF407CAC3010E94F6
:102B50003524482F50E04E5F5F4F20E067E770E07C
:102B60008EE797E00E94DA24C3010E943524682F83
:102B700070E06D5F7F4F21E046E087E790E00E94C4
:102B80000320C3010E943524482F50E0475F5F4F68
:102B900020E067E770E08EE797E00E94DA24DDC965
:102BA0008091C3028F5F8093C302BACA20E044EAD7
:102BB00051E060E070E08AE690E00E94071D13CCCF
:102BC0000E94D41E882309F423CC1092BD0220CC8D
:102BD00080915F07882309F41FCC815080935F07A1
:102BE0001BCC80915F078C3608F01ACC8F5F8093E6
:102BF0005F0716CC88E00E94F81F81110EC015CC2B
:102C00000E941C1D87FD15CC809181079091820741
:102C10008F709927892B91F00CCC8091DE06811161
:102C200004CC8DE28093DE0680915F07895F8093FC
:102C3000DD068CE697E00E94B91AF7CB8091630716
:102C400018161CF40E94F61EF4CB882309F4F1CB6D
:102C50000E94D41EEECB8BE0F9CB252F30E024155B
:102C600035050CF09BCC280F311D88AD99AD82172E
:102C700093070CF093CCE4E0D701EC9382E297E069
:102C80000E94B91A21E08091780790917907892BE9
:102C900009F420E0D8019C91892F8F70823031F4A3
:102CA000222309F487C084E893E008C08330F0F45D
:102CB00081110FC0211111C086E990E020917007A9
:102CC00030917107820F931F909371078093700763
:102CD00065CC813041F4211103C08CE291E0EECF4C
:102CE00088E592E0EBCF80E090E0E8CF843009F017
:102CF00053C0E3E0F7E020E030E08081811137C08D
:102D000063E0220F331F6A95E1F7D901A250B94F52
:102D10001D018C91807185668C93E5E01596EC938E
:102D2000D80111968D919C911297F1019283818324
:102D3000F70132978081D10113968C93C8010E94CC
:102D4000AD24682FC1010E948E246FEFC1010E9443
:102D500081248AE0F1018683809177078F5F8093D9
:102D600077078091720781508093720723C02F5F8D
:102D70003F4F38962C30310509F0BFCF90719566E2
:102D8000F8019083E5E0D701EC93D301EC936FEF6A
:102D9000C8010E9481240EC0843030F4222309F43B
:102DA0009FCF80EB94E08ACF853009F09CCF88EEEE
:102DB00093E084CF82EC91E081CFD8011C9220E097
:102DC0004BE157E06EEF7FEF02970E94F71C85E121
:102DD00097E00E94B91A13CCC5010E943D240196C8
:102DE0003C01D12CBFEFCB1ADB0AC5010E941E2487
:102DF000282FC5012FAF0E94072482502FAD2250EB
:102E0000F301E20FF11DD5019C91EE16FF066CF463
:102E10006414750454F49601280F311D23333105D1
:102E200024F0E0E4CE16D10424F09F7EF5019083D7
:102E300002CC892F8F708530F0F494FDFCCB90612B
:102E4000D5019C9324E0F8012083809160078823BA
:102E500051F08150809360071092650710926407CB
:102E600083E097E005C03EE03093660789EB96E08B
:102E70000E94B91AE0CB853009F0DDCBD8011C9255
:102E80008FE996E00E94B91A30927907209278076C
:102E9000D2CB80916007D8011C92882351F08150D9
:102EA0008093600710926507109264078DE896E0A2
:102EB00004C0B092660789EB96E00E94B91AE9CB8C
:102EC00097709860182F1770C1CC77FD03C0683ECB
:102ED00073403CF0F501EC0DFD1DE052F94F106F11
:102EE00002C01061F4011283D6CC8EE08093660795
:102EF00089EB96E00E94B91ADBCC6CE170E080E0CF
:102F000090E006CDEF960FB6F894DEBF0FBECDBFB2
:102F1000DF91CF911F910F91FF90EF90DF90CF90B5
:102F2000BF90AF909F908F907F906F905F904F90E9
:102F30003F902F900895CF92DF92EF92FF920F93E0
:102F40001F93CF93DF936C017A018B01C0E0D0E037
:102F5000CE15DF0589F0D8016D918D01D601ED9177
:102F6000FC910190F081E02DC6010995892B11F4A7
:102F70007E0102C02196ECCFC701DF91CF911F9156
:102F80000F91FF90EF90DF90CF9008958091CD0248
:102F9000E091CB02F091CC02882349F0CF01029658
:102FA0009093CC028093CB02859194910895CF01A8
:102FB00002969093CC028093CB02808191810895F8
:102FC0008091BE0208950E94C32D2F923F924F928E
:102FD0005F926F927F928F929F92AF92BF92CF92A9
:102FE000DF92EF92FF920F931F93CF93DF93CDB7B2
:102FF000DEB729970FB6F894DEBF0FBECDBFFC0138
:103000006A3069F425898189928938E0239F800D8F
:10301000911D1124928B818B108A1786AAC06D3066
:1030200009F4A7C099878887F58834882388618840
:1030300072880785108900381105C4F0A885B98504
:1030400055962C915597422F50E01F968D919C914B
:103050005097B6E02B9F800D911D1124E885F985CE
:10306000908B8787268921116EC083C0F0E46F168C
:10307000710424F7C80125E0F29E800D911D1124F2
:1030800018161906DCF68F2D90E09C838B83C30104
:10309000A8E0FA9E800D911D11241816190674F6E9
:1030A000B5E06B9FB0011124FB01EB5EFD4EFA838E
:1030B000E98330E08885998504969E838D83E98134
:1030C000FA81E490353009F4E12C430188E0482E80
:1030D000E0FC02C0532C01C0522C51100BC0321026
:1030E00009C0E6944A948B819C81880E991E4110F8
:1030F000EFCF1BC068018C2D801B8F1590F75401FA
:103100008A2D88198F1568F4252DA501B6018D81AA
:103110009E813F830E94DA249FEFA91AB90A3F815A
:10312000EFCFAFEFCA1ADA0AE6CF3F5FEB81FC813F
:103130000E0F1F1F89819A8101969A8389833630E9
:1031400009F0BDCF7BCF6AEF64039001659F300D1E
:10315000112420583F4F281739075CF4A885B985FA
:10316000ED91FC9111970190F081E02D6AE0CD0185
:10317000099581E090E029960FB6F894DEBF0FBE66
:10318000CDBFDF91CF911F910F91FF90EF90DF9016
:10319000CF90BF90AF909F908F907F906F905F90F7
:1031A0004F903F902F900895CF93DF9300D000D0A1
:1031B000CDB7DEB7611571058105910579F09B01E9
:1031C000AC0169833A834B835C830E94022D298181
:1031D0003A814B815C810E94262D03C060E070E043
:1031E000CB010F900F900F900F90DF91CF9108952A
:1031F0003FB7F8948091D5029091D602A091D70262
:10320000B091D80226B5A89B05C02F3F19F00196B2
:10321000A11DB11D3FBFBA2FA92F982F8827820F5C
:10322000911DA11DB11DBC01CD0142E0660F771FAC
:10323000881F991F4A95D1F708958F929F92AF9258
:10324000BF92CF92DF92EF92FF926B017C010E94BE
:10325000F8184B015C01C114D104E104F104F1F050
:103260000E94F818DC01CB0188199909AA09BB0949
:10327000883E9340A105B10570F321E0C21AD10840
:10328000E108F10888EE880E83E0981EA11CB11CAD
:10329000C114D104E104F10419F7DDCFFF90EF90E0
:1032A000DF90CF90BF90AF909F908F9008951F9226
:1032B0000F920FB60F9211242F933F938F939F93EA
:1032C000AF93BF938091BF029091C002A091C102C1
:1032D000B091C2023091D40223E0230F2D3720F4A5
:1032E0000196A11DB11D05C026E8230F0296A11D60
:1032F000B11D2093D4028093BF029093C002A0938B
:10330000C102B093C2028091D5029091D602A091E1
:10331000D702B091D8020196A11DB11D8093D502AC
:103320009093D602A093D702B093D802BF91AF91E9
:103330009F918F913F912F910F900FBE0F901F90F3
:103340001895E1E7F0E080818D7F808310929100F5
:10335000469847981092C6020895CF92DF92EF9256
:10336000FF920F931F93CF93DF930E94C61781158F
:1033700020E8920751F4DF91CF911F910F91FF90B8
:10338000EF90DF90CF900C94A11921E02093C6021A
:10339000813020E8920751F48091C9029091CA02CD
:1033A0009093CC028093CB020E94C61797FD05C074
:1033B0002091C802222309F440C02091C7022111A4
:1033C0003CC021E02093CE02EC01DF77209769F426
:1033D00081E08093CF0246983FE9C32E3FE0D32E91
:1033E000E12CF12CCAEFD0E014C08E0120E030E0D7
:1033F00060E472E48FE090E0A90198010E94262D1C
:1034000069017A0181E0C81AD108E108F108109237
:10341000CF02E0916707F09168070995811103C019
:1034200081E08093CF028091CE02882309F43FC0CF
:103430008091CF0281113BC003C01092CE02C4CF55
:10344000469935C0479A0E94C617009771F09C01B3
:10345000DE010E947A2DDC01CB0129E0B595A7950C
:10346000979587952A95D1F703C08FEF9FEFDC01E1
:10347000109290002AE020939100D0929900C0927F
:1034800098008093D0029093D102A093D202B0937F
:10349000D30280917100826080937100DF91CF919F
:1034A0001F910F91FF90EF90DF90CF900895479874
:1034B000CACF1F920F920FB60F9211242F933F93F2
:1034C0004F935F936F937F938F939F93AF93BF932C
:1034D000EF93FF938091D0029091D102A091D202FC
:1034E000B091D302892B8A2B8B2B81F18091CF0253
:1034F00081110BC098B180E4892788B98091CE02F0
:10350000882319F088B1805888B98091D0029091B1
:10351000D102A091D202B091D302181619061A0650
:103520001B06B4F48091D0029091D102A091D202F6
:10353000B091D3020197A109B1098093D002909371
:10354000D102A093D202B093D30202C00E94AD195F
:10355000FF91EF91BF91AF919F918F917F916F916B
:103560005F914F913F912F910F900FBE0F901F9041
:1035700018959C01E1E7F0E090819D7F908381E0C8
:103580008093CD023093CC022093CB023093CA02B9
:103590002093C9020C94AD196F927F928F929F92E3
:1035A000AF92BF92CF92DF92EF92FF920F931F9351
:1035B000CF93DF9300D000D0CDB7DEB73A014115ED
:1035C000510509F401C2FA01F49031965491F2E0E8
:1035D0006F0E711CAF2CB12C211102C0EE2069F1CD
:1035E000A52FA695A695A695B0E0E1E0F0E0352FD1
:1035F000377011F4E0E0F0E0AE0FBF1FAA9EF001BB
:10360000AB9EF00DBA9EF00D1124A3E08A2EC810D7
:1036100003C0EE0FFF1F0AC00115110539F0EE9E21
:10362000D001EF9EB00D11240A0F1B1F2E9FD00159
:103630002F9FB00D11246A0E7B1E2FEFC21208C0FF
:103640000115110519F0CC24C39402C032E0C32E39
:10365000DC01AA0DBB1D1A161B060CF0B5C1803883
:1036600091050CF0B1C19B01250F311D12161306F7
:103670000CF0AAC1603471050CF0A6C1611471048C
:1036800009F4A2C1362F3770932EFB0177FD3796D0
:1036900023E0F595E7952A95E1F72E2F77FF04C0F3
:1036A000992011F02FEF2E0F97FF05C0EE27FF276F
:1036B000E81BF90B02C0E0E0F0E0A038B1051CF017
:1036C00030E8381B01C03F2D3E1B622F022E000C3C
:1036D000770B2F3F1CF4462F409501C040E0B1E02E
:1036E000A52FA77009F4B0E0569556955695DB2E98
:1036F000D50E6D0D711D693071051CF058E0D52E89
:10370000D21AD41A240FDC0150E82503A00DB11DF4
:103710001124AE0FBF1F4F9DE00DF11D1124A30119
:103720004E0F5F1F81E090E07C01092C02C0EE0C7F
:10373000FF1C0A94E2F783E0C81609F404C18C1553
:10374000A8F091E0C91609F4B5C0E2E0CE123CC180
:103750008FEF8E9DB0018F9D700D11246095709537
:103760007C836B837C806D2C620E2BC0FAEFCF16AE
:1037700031F09BEF892EC81027C1D20E87C0D20E20
:1037800051C0FA01E00FF11FE491EE9D6001EF9D41
:10379000D00C1124DA82C98227FD07C0FC01D08039
:1037A000ED2DE623CE2AFC01C082911013C00F5FDD
:1037B0001F4F0196031728F32F5F4A0D5B1DA0587A
:1037C000BF4F261509F400C1CD0183529D4F00E083
:1037D00010E0F0CF27305CF7FC01E058FF4FC080CD
:1037E000C7208A80C828C082E2CFFA01E60FF71FFF
:1037F000E491EE9D8001EF9D100D11241A83098341
:1038000027FD04C0FC011081012B0083911013C01F
:103810006F5F7F4F0196631740F32F5F4A0D5B1D6B
:10382000A058BF4F2D1509F4CFC0CD0183529D4F35
:1038300060E070E0F0CF27305CF78C0100581F4F3C
:10384000F801C080FA81CF2AF801C082E1CFFA01E5
:10385000E00FF11FE491EE9DC001EF9D900D11244A
:103860009A83898327FD05C08095FB019081892378
:103870008083911014C00F5F1F4F6F5F7F4F03173E
:1038800030F32F5F4A0D5B1DA058BF4F2D1509F473
:103890009BC0BD0163527D4F00E010E0F0CF2730A8
:1038A00054F7FB01E058FF4F8A818095908189236E
:1038B0008083E1CF0E0F1F1F8D2C820E281509F477
:1038C00083C0CD0183529D4F6C0160E070E06317AF
:1038D00090F5F801E60FF71FE491EE9DC001EF9D12
:1038E000900D1124809590959C838B83FA01E60FAF
:1038F000F71FE491EE9D3001EF9D700C11247A8248
:10390000698227FD05C0F60190818923682A6082BB
:10391000992059F027304CF4F601E058FF4F908180
:103920008C8189239A81892B80836F5F7F4FFFEF82
:10393000CF1ADF0ACCCF2F5F4A0D5B1D0A0D1B1D6E
:10394000A058BF4FBBCF832F90E0E40FF51FA352C9
:10395000BD4F60E870E0681B790BA81AB90A8501B1
:10396000000F111F5D2D832ECF93DF93ED01EF9696
:10397000EF962296A590C590992059F0AE9C5001E3
:10398000CE9C600127302CF4F880D094FD20FB28D9
:10399000F99222233AF0FC90C094FC20FA28FD9280
:1039A0000C94D31C11963A9529F75A9551F0382D5D
:1039B00023951124E00FF11DA60FB11DC60FD11DD7
:1039C000D9CFDF91CF9111240F900F900F900F90CE
:1039D000DF91CF911F910F91FF90EF90DF90CF90EB
:1039E000BF90AF909F908F907F906F900895CF92EF
:1039F000EF920F931F933AEFC32EE12C00E010E0FB
:103A00000E94CC1A1F910F91EF90CF900895CF9202
:103A1000EF920F931F9332E0C32EE12C00E010E0F1
:103A20000E94CC1A1F910F91EF90CF900895BC0186
:103A300080E090E00C941D198FB18095807F669B8B
:103A400088601C9B84600895FC01840F911D1816EA
:103A50001906E4F5E038F105CCF5F7FF02C0E0E027
:103A6000F0E08138910514F080E890E0382F3E1B9B
:103A7000AB0177FF02C0495F5F4F83E055954795E3
:103A80008A95E1F75695542F442757954795E40FAB
:103A9000F51FE352FD4F6770772781E090E001C08A
:103AA000880F6A95EAF7482F222349F0213071F4F4
:103AB000315020F08081842B8193FACF0895809536
:103AC000315020F0908198239193FACF0895E5E149
:103AD000F7E190E1969FD001A0781124A80F6770BC
:103AE000E60FF11D9491A352BD4F442319F08C9120
:103AF000982B03C090958C9198239C930895FC017A
:103B00008091DC02811103C08FEF9FEF08959FB772
:103B1000F89482E08093E9002091F20030E01216E0
:103B2000130614F421E030E02115310559F02898EE
:103B300084E68093DB028091F10080838091F20023
:103B4000882319F09FBFC90108958BE68093E80090
:103B5000F9CF2FB7F89483E08093E9009091E800C3
:103B6000892F807295FF04C09091F20080E4891B38
:103B70002FBF0895CF93DF931F92CDB7DEB7698330
:103B8000DC01ED91FC910280F381E02D41E050E0F9
:103B9000BE016F5F7F4F09950F90DF91CF91089520
:103BA00083E08093E9008091F200882319F08AE392
:103BB0008093E80008950E94A91D90E00895CF9396
:103BC000DF931F92CDB7DEB7FC018485958597FD05
:103BD00005C02FEF3FEF358724870BC0CE0101963C
:103BE0000E947F1D019719F4898190E002C08FEF38
:103BF0009FEF0F90DF91CF9108950F931F93CF9375
:103C0000DF931F92CDB7DEB78C01FC0184859585CB
:103C100097FF0EC0CE0101960E947F1D019719F4F7
:103C2000298130E002C02FEF3FEFF801358724876C
:103C3000F801848595850F90DF91CF911F910F91A9
:103C40000895FC018485958597FD0BC09FB7F89476
:103C500082E08093E9008091F2009FBF90E001969E
:103C600008959FB7F89482E08093E9008091F20074
:103C70009FBF90E008958F929F92AF92BF92CF9294
:103C8000DF92EF92FF920F931F93CF93DF935C012C
:103C90006B017A0180910701882309F45BC0809150
:103CA000DC02882309F456C08091DA0280FF05C047
:103CB0008091E00082608093E000E70110E00AEF6D
:103CC00083E0882E9AE3992E2097D9F10E94A91DAE
:103CD00081110AC0015009F43DC061E070E080E04C
:103CE00090E00E941D19F0CF282F30E0C217D307B3
:103CF0000CF48C2F4FB7F8948092E9009091E80073
:103D000095FF1DC0282F30E0C21BD30BF601982F62
:103D1000915020F081918093F100FACFC20ED31E12
:103D2000112319F09092E80009C08091E80085FD08
:103D300006C09092E80011E0209709F010E04FBF14
:103D4000C3CF1111C3CF5D9884E68093D9021E14AE
:103D50001F0444F081E090E0F5019383828380E0CA
:103D600090E001C0C701DF91CF911F910F91FF90AB
:103D7000EF90DF90CF90BF90AF909F908F9008957D
:103D80000F931F93CF93DF938C01EB010E94102DB3
:103D90008883C80101960E94102D8983CE01DF918E
:103DA000CF911F910F910895809163078F3F81F00C
:103DB00034F48C3F59F08E3FB9F48FEF11C081304D
:103DC00071F04CF0823081F484E00AC08EEF08C0BC
:103DD0001092630707C081E080936307089582E033
:103DE0008093630781E0089580E0089580916307E0
:103DF000882381F034F48E3F59F08F3FB9F48EEF71
:103E00000AC0823079F05CF0843081F482E003C033
:103E10008CEF01C08FEF8093630781E008951092CB
:103E20006307FBCF81E080936307089580E00895E6
:103E300080E090E0FC01E250F94F1582168208966E
:103E400080369105B9F71092E1061092E4061092BF
:103E5000E7061092EA061092ED061092F006109214
:103E6000F3061092F6061092F9061092FC061092D4
:103E7000DE061092720782E080936E071092770739
:103E800010927907109278070895BF92CF92DF922F
:103E9000EF92FF920F931F93CF93DF93E82FF0E001
:103EA000EE0FFF1FE05BFD4FE080F180F701D49043
:103EB000809172078D0D80937207C12C01E010E094
:103EC00095E0B92ECD1409F44AC080E090E0EC01F1
:103ED000C250D94F2D8121113BC0F701E00FF11FD6
:103EE000E4918881807FE82BE883F8013196EE0D1C
:103EF000FF1DE4910E2E000CFF0BFA83E983F801FD
:103F00003296EE0DFF1DE491EB83F8013396EE0D32
:103F1000FF1D6491CE010E948E24F8013496EE0DAF
:103F2000FF1D6491CE010E94812498012B5F3F4FB9
:103F3000F701E20FF31F0A5F1F4F2491F0E22F9F5A
:103F400090011124E881EF712E2B2883BD8205C0DA
:103F500008968036910509F0BACFC394B3CF9091FB
:103F60006F0726EF929F202D11242C59223320F029
:103F7000253618F024E601C022E330E030937407C0
:103F800020937307809177078D0D809377078D2D90
:103F9000DF91CF911F910F91FF90EF90DF90CF9025
:103FA000BF9008950F931F93CF93DF93C0E0D0E0AD
:103FB00000E810E020E040910801BE0180E090E0C0
:103FC0000E94241D80910801BE016F5F7F4F20E099
:103FD000482FF801E81BF109CF010E94241D229609
:103FE000C034D10539F7DF91CF911F910F9108951A
:103FF00020918407282329F490918307982381E056
:1040000009F480E00895DF92EF92FF920F931F93DF
:10401000CF93DF937C01D22E8B01040F111DEB0196
:1040200077FF0EC0C0E0D0E00BC0C417D5077CF40A
:104030002D2DAE01B7018EE797E00E94DA2421967C
:10404000A801013411058CF340E450E0EECFDF917C
:10405000CF911F910F91FF90EF90DF900895EDEDBC
:10406000F2E0A0E0B8E000800EBC8111012C1197B5
:10407000A0FDFDCF0192B9F70DB408958091950789
:1040800081110DC082E08093910784E080939207B4
:10409000109294071092930781E08093950781E92D
:1040A00097E008954091FF07509100082091FD0787
:1040B0003091FE0742175307B4F49091E8009570D1
:1040C000E1F39091E80092FD19C08093F100809196
:1040D000FF079091000801968F739927892B19F497
:1040E0008EEF8093E8008091FF0790910008019681
:1040F000909300088093FF0781E0089580E0089581
:10410000CF92DF92EF92FF920F931F93CF93DF93A3
:104110001F92CDB7DEB7182F062FE42E862F880FFB
:104120008E5F99830E94522083E00E945220F12EDC
:10413000C12E9981D92E8C2D8F19801798F4F601F4
:10414000E7FE02C0849101C080810E945220182F96
:1041500080E00E9452208123FFEFCF1ADF0A8111F5
:10416000EACF01C081E00F90DF91CF911F910F91B5
:10417000FF90EF90DF90CF900895DF92EF92FF9243
:104180000F931F93CF93DF93D82E8A017B01E40E08
:10419000F51EEB01CE15DF0571F0D7FE03C0FE0161
:1041A000849101C088810E94522021968111F2CF12
:1041B0008FEF9FEF01C0C801DF91CF911F910F9149
:1041C000FF90EF90DF900895615030F02091F10062
:1041D000FC0120830196F8CF289884E68093DB02C7
:1041E00008950F931F93CF93DF931F92CDB7DEB740
:1041F00082E0898342E450E06EE279E180E80E9447
:10420000BD200E943E20DC0112960D911C91139757
:104210000115110569F0D801ED91FC910280F3813F
:10422000E02DBE016F5F7F4FC801099597FF07C062
:1042300089810F90DF91CF911F910F910895F8011F
:1042400000851185E5CF1F920F920FB60F921124B2
:104250008F939F938091E1009091E100937F9093E1
:10426000E10083FF0FC01092E90091E09093EB0012
:104270001092EC0092E39093ED001092DC0298E033
:104280009093F00082FF20C093E09093E90090911A
:10429000F200992319F09AE39093E8009091D902E3
:1042A000992339F09091D90291509093D902992392
:1042B00089F19091DB02992339F09091DB029150C2
:1042C0009093DB02992341F184FF10C08091E200BA
:1042D0008E7E81608093E2008091E1008F7E8093EA
:1042E000E1008091DA028E7E806111C080FF16C0ED
:1042F0008091E2008E7E80618093E2008091E100F7
:104300008E7E8093E1008091DA028E7E81608093C0
:10431000DA0204C05D9ACDCF289AD6CF9F918F91B3
:104320000F900FBE0F901F9018951F920F920FB60F
:104330000F921124CF92DF92EF92FF920F931F936F
:104340002F933F934F935F936F937F938F939F939D
:10435000AF93BF93EF93FF93CF93DF93CDB7DEB7C8
:104360006C97DEBFCDBF1092E9008091E80083FF1B
:10437000EDC168E0CE0145960E94E42082EF809373
:10438000E8008D8987FF05C09091E80090FFFCCF81
:1043900003C09EEF9093E800982F907609F0C6C076
:1043A0009E892F89188D91110CC0803829F4809135
:1043B000FC078093F10002C01092F1001092F1000E
:1043C00048C1422F50E0512B913051F4811141C12D
:1043D0004130510509F03DC18091FC078D7F0BC034
:1043E000933061F4811135C14130510509F031C17B
:1043F0008091FC0782608093FC072BC1953041F4CB
:104400008091E80080FFFCCF20682093E30021C169
:10441000963009F05FC0EB8CFC8C1092E900109292
:1044200000081092FF07123091F51092FE071092CB
:10443000FD070E94F12099E0BE016F5F7F4FDB0115
:10444000E92F1D92EA95E9F799831A8391E09E83FB
:1044500090EA98879AEF99872091FF07309100089A
:10446000275F3F4F3C832B838D831092E90010928E
:1044700000081092FF07F092FE07E092FD0749E066
:1044800050E080E00E94BD200E94F120E2C0F09246
:10449000FE07E092FD070E943E20DC011296ED909F
:1044A000FC901397E114F10409F4C0C0D701ED9119
:1044B000FC910480F581E02DBE016B5E7F4FC7014A
:1044C0000995009719F00CF0C4C0C7C0F701E0844B
:1044D000F184E8CF973009F4C0C0983021F481E02E
:1044E0008093F100B6C0993009F0B3C0837009F031
:1044F000B4C0E5EBF2E081E021E036E3908199235E
:1045000061F08093E9002093EB0091919093EC008F
:104510003093ED008F5F873089F78EE78093EA0054
:104520001092EA008F898093DC0293C08B8D9C8D62
:104530001092E900109200081092FF079093FE0776
:104540008093FD07898D811156C08E899D89913A8E
:1045500059F4813209F081C047E050E060E071E039
:1045600080E00E94BD2075C0913209F076C0833290
:1045700089F4888D90E0982F88272F89822BA0E0DE
:10458000B0E08093090190930A01A0930B01B093CE
:104590000C015FC0803269F48091E80082FFFCCF9B
:1045A00067E080E091E00E94E4208BEF8093E800D8
:1045B00006C0823209F04DC08F8980930701809137
:1045C000FB07882319F0EEEFFAE002C0E0E0F8E024
:1045D0008091000190910101A0910201B09103012D
:1045E000803B9440A105B10509F07BC08091070193
:1045F00080FF93C076C00E943E20DC0112960D9190
:104600001C9113970115110541F1D801ED91FC9111
:104610000190F081E02DBE016B5E7F4FC8010995CE
:10462000811117C0F80100851185ECCF113009F414
:104630004EC0133091F48F89882309F445C082302D
:1046400081F440E860E182E999E10E9480208823BA
:1046500021F08EEF8093E80079C081E28093EB0037
:1046600075C0813029F440E86BE086E899E1EDCF30
:10467000833099F70E943E20DC011296ED90FC9069
:1046800013978E010F5F1F4F6801E114F10479F059
:10469000D701ED91FC910680F781E02DB801C701AB
:1046A0000995080F111DF701E084F184EECFD801C0
:1046B0001C92F60101900020E9F73197BF016C19B7
:1046C0007D0940E0C601C1CF60E779E102C064E73F
:1046D00079E16115710509F2FB01449150E080E830
:1046E00040CF0FB6F894A8958091600088618093C0
:1046F0006000109260000FBEA895EE3F2AE0F2071E
:1047000039F08091FE0A9091FF0A91838083A1CFB6
:104710001092FF0A1092FE0A9CCFEE3F8AE0F80743
:1047200031F0808191819093FF0A8093FE0A87E7A0
:1047300097E7918380839BE088E10FB6F894A89572
:10474000809360000FBE9093600083CF6C960FB68D
:10475000F894DEBF0FBECDBFDF91CF91FF91EF91F7
:10476000BF91AF919F918F917F916F915F914F9189
:104770003F912F911F910F91FF90EF90DF90CF907D
:104780000F900FBE0F901F901895EF92FF920F930E
:104790001F93CF93DF9300D0CDB7DEB78B0196E0A8
:1047A000899F70011124C701825C9E4F0E94102DC9
:1047B000F8018083C701815C9E4F0E94102DF80193
:1047C0008183C701805C9E4F0E94102DF801828377
:1047D000C7018F5B9E4F0E94102DF80183831A82C0
:1047E0001982BE016F5F7F4FC7018E5B9E4F0E9493
:1047F000C01E89819A81F801958384830F900F9060
:10480000DF91CF911F910F91FF90EF900895FC01E0
:1048100083818A332CF484334CF488316CF40AC0DD
:10482000803434F08B3734F48DE0089585E00895BA
:1048300087E0089580E0089581E00895FC01838178
:104840008A332CF484334CF488316CF40AC08034FD
:1048500034F08B3734F489E0089585E0089588E0DA
:10486000089580E0089581E00895FC0183818033FC
:1048700010F08053089580E00895FC012381418168
:1048800052812403C001259F900D112460E670E041
:104890000E94A92DCB01CC9620342CF42A334CF461
:1048A000243324F408952B373CF00895CB01CA96A5
:1048B0000895CB01C9960895CB01C69608950F932C
:1048C0001F93CF93DF93FC0125812223A1F0238145
:1048D0002851283580F4EC010E943D248C01CE0142
:1048E0000E941E249801280F311D37FD04C081E06D
:1048F000083711050CF080E0DF91CF911F910F91E7
:104900000895FC01948167FD03C06F70907F03C020
:10491000907F98606770692B64830895FC0194818F
:1049200067FD07C080E1680290011124692F6F7054
:1049300009C0292F2F702068962F977080E1989FCB
:10494000B0011124622B64830895FC01848183FFEC
:1049500002C0806F08958F700895FC019481892FA3
:1049600082958F7097FD806F0895EF92FF920F935D
:104970001F93CF93DF931F92CDB7DEB77C01FC016D
:1049800000811181C80169830E94102D6981681717
:1049900019F0C8010E94182DC7010F90DF91CF9127
:1049A0001F910F91FF90EF9008950895089580E072
:1049B00090E00895CB01BA018038910530F440347D
:1049C000510518F4422F0C94671D0895EF92FF9241
:1049D0000F931F93CF93DF9300D0CDB7DEB78C0139
:1049E0007B01FB0160819A838983CE0101960E943D
:1049F000B524F70161810F5F1F4F1A830983CE0130
:104A000001960E94B524C7010F900F90DF91CF91BE
:104A10001F910F91FF90EF900895CF93DF9300D0F7
:104A2000CDB7DEB79A838983CE0101960E94B52463
:104A30000F900F90DF91CF910895CF93DF93CDB773
:104A4000DEB72E970FB6F894DEBF0FBECDBF7894B9
:104A500084B5826084BD84B5816084BD85B5826083
:104A600085BD85B5816085BD80916E008160809334
:104A70006E0010928100809181008260809381009D
:104A800080918100816080938100809180008160AD
:104A9000809380008091910082608093910080914A
:104AA000910081608093910080919000816080935B
:104AB00090008091C10084608093C1008091C1000A
:104AC00082608093C1008091C10081608093C100A9
:104AD0008091C30081608093C3008091C000826098
:104AE0008093C0008091C20081608093C200809159
:104AF0007A00846080937A0080917A00826080934B
:104B00007A0080917A00816080937A0080917A00A7
:104B1000806880937A001092DC021092FC07109259
:104B2000DA028091D70081608093D70080EA809379
:104B3000D80089B5806189BD89B5826089BD09B415
:104B400000FEFDCF61E070E080E090E00E941D1962
:104B50008091D8008F7C80618093D8008091E000A4
:104B6000807F8093E0008091E1008E7E8093E10061
:104B70008DE08093E200559A209AEEEFFFE7859151
:104B800094918B3F9C4D19F481E08093FB0781EC5D
:104B900080937C0085B1806F85B984B1877E84B9AC
:104BA00084B1876E84B95E9A5F988AB1806D8AB944
:104BB000769A6E9881B3806F81BB899880B38D702F
:104BC00080BB80E58CBD81E08DBD85E090E00E94DA
:104BD000171D5F9A85E090E00E94171D5E985C9813
:104BE000E4E9F7E08DE08E0F94919EBD00000DB4D6
:104BF00007FEFDCF31968E13F7CF5C9A81E8809344
:104C00006400809165008160809365000E941C1D96
:104C100087FF15C05C9885EA8EBD00000DB407FEC5
:104C2000FDCF5C9A2E982F982D9880916400806219
:104C30008093640081E083BF889513BEFCCF02E0BF
:104C400010E00E941C1D82FF40C02D980E941C1D78
:104C500084788438C1F00E941C1D8471843181F5F0
:104C60002D9A88EC90E00E94171D2E981A830983D4
:104C700060E0CE0101960E94B52484EF91E00E948D
:104C8000171D2E9A18C02D9A88EC90E00E94171DCF
:104C90002F981A8309836FEFCE0101960E94B524E5
:104CA00084EF91E00E94171D2F9A0E941C1D8478AA
:104CB0008438D9F3D0CF0E941C1D84718431D9F37C
:104CC00088EC90E00E94171DBCCF2D9A80E1809364
:104CD0008507809164008E7F8093640080917A00C4
:104CE000806480937A0080917A0086FDFCCF0091E9
:104CF0007800109179000E94F81820E030E09801C7
:104D000011270027600F711F821F931F6115710506
:104D10008105910511F00E94072D8091640081604A
:104D20008093640082E090E00E94102D882331F08F
:104D30003E9A3F9A81E08093BE0204C01092BE0268
:104D40003E983F988CE391E00E94102D182F8DE340
:104D500091E00E94102D1A3411F48634C1F11A82A8
:104D600019826AE48CE391E00E940D2566E48DE3EC
:104D700091E00E940D2558E8E52E53E1F52E0EE353
:104D800011E060E0C8010E940D2560E0C8010196B5
:104D90000E940D2560E0C80102960E940D2560E08A
:104DA000C80103960E940D25FA82E982BE016F5F59
:104DB0007F4FC80104960E94E6240A5F1F4F88EEC9
:104DC000E81A83E0F80A0C3591E01907D1F6FE01E4
:104DD00031965F013AE0832E912C46E0F42EFE0ED0
:104DE0008FB7F8944091BF025091C0026091C10208
:104DF0007091C2028FBF80918607F42FF81B8F2F0E
:104E000090918707992329F0F093880710928707DC
:104E10000AC590918507F91748F48F5F891708F044
:104E200002C581E083BF889513BEFDC481E08093F5
:104E300087074093860780918107909182070196AA
:104E400090938207809381078091830780938407E2
:104E50000E941C1D80938307E091C5028E2F90E075
:104E60008C30910508F0DCC4FC01EA5AFF4F0C9429
:104E7000BD2D80E18093850780E88093080181E063
:104E80008093C50287E191E10E94B91A20E04BE9C5
:104E90005EE064E070E082E190E00E94071D809196
:104EA0000801882349F00E94D21F809108018823BD
:104EB00019F08150809308018091C4028C3320F452
:104EC0008F5F8093C40209C020E049E55EE067E39C
:104ED00070E083E390E00E94071D88E00E94F81FC5
:104EE000882329F082E08093C5021092C40284E0F6
:104EF0000E94F81F882309F493C489E09DC40E948E
:104F0000A1198091C3028F5F8D3618F48093C3027C
:104F100002C01092C3028091C30264E20E94892DF4
:104F200011E0923108F010E020E04DEA5DE061E030
:104F300070E084E190E00E94071D111103C04AE374
:104F40005CE002C048ED5CE020E065E170E08AE0F2
:104F500090E00E94071D20E040EA5DE064E170E01F
:104F60008DE190E00E94071D21E046E75DE067E1EA
:104F700070E08CE290E00E94071D25E046E75DE0CE
:104F800067E170E081E390E00E94071D20E046E7C2
:104F90005DE067E170E086E390E00E94071D11117B
:104FA00003C048ED5CE002C04AE35CE021E06FE151
:104FB00070E08AE090E00E94071D20E040EA5DE09A
:104FC0006EE170E08DE190E00E94071D23E046E76E
:104FD0005DE061E270E08CE290E00E94071D20E05D
:104FE00046E75DE061E270E081E390E00E94071D2A
:104FF00020E046E75DE061E270E086E390E00E9439
:10500000071D24E048ED5CE069E270E08AE090E092
:105010000E94071D20E040EA5DE068E270E08DE15B
:1050200090E00E94071D24E046E75DE06BE270E03F
:105030008CE290E00E94071D25E046E75DE06BE210
:1050400070E081E390E00E94071D20E046E75DE00C
:105050006BE270E086E390E00E94071D111103C02F
:105060004AE35CE002C048ED5CE022E065E170E00C
:1050700086E490E00E94071D20E040EA5DE064E1E4
:1050800070E089E590E00E94071D26E046E75DE0BC
:1050900067E170E088E690E00E94071D20E046E7A7
:1050A0005DE067E170E08DE690E00E94071D20E082
:1050B00046E75DE067E170E082E790E00E94071D4F
:1050C000111103C048ED5CE002C04AE35CE023E05C
:1050D0006FE170E086E490E00E94071D20E040EA66
:1050E0005DE06EE170E089E590E00E94071D22E03E
:1050F00046E75DE061E270E088E690E00E94071D0F
:1051000025E046E75DE061E270E08DE690E00E9418
:10511000071D20E046E75DE061E270E082E790E095
:105120000E94071D25E048ED5CE069E270E086E43E
:1051300090E00E94071D20E040EA5DE068E270E038
:1051400089E590E00E94071D20E04DE25CE06BE203
:1051500070E08BE690E00E94071D8091C4028C33C2
:1051600020F48F5F8093C40209C020E049E55EE02F
:1051700067E370E083E390E00E94071D88E00E94EF
:10518000F81F882319F083E08093C50288E3809399
:105190005F07109262071092630780E380936107B4
:1051A00087E0809360078FE08093660784E08093B8
:1051B0005E070E94181F81E080936F0710927107AD
:1051C000109270072DC388E380935F0710926207E7
:1051D0001092630780E38093610787E08093600704
:1051E0008FE0809366070E94181F8CE08093C402B2
:1051F0001092C30284E08093C50260916F07660F2E
:10520000660F685C70E088EE93E00E94A92D6093C1
:105210008507809181079091820764E170E00E9488
:10522000952D892B29F48091C40281508093C4026A
:105230008091C40281110CC06CE170E080E090E0CC
:105240000E94D418862F0E94451F85E08093C502D6
:105250000E94FD0CE5C280E18093850787E0809382
:10526000C50280E88093080181ED90E10E94B91A9F
:1052700020E047E35AE060E170E081E090E00E94C6
:10528000071D80910801882349F00E94D21F809158
:105290000801882319F081508093080188E00E945A
:1052A000F81F882309F4BCC288E08093C5021092DD
:1052B000C402B6C28FEF8093690710926A071092FA
:1052C0006B0710926C0710926D0740906F078091EA
:1052D0007007909171079E878D8700E010E0E12CA8
:1052E0001A82198238012EEB621A2EEF720AB5016A
:1052F000C3010E94C01E29813A818D859E85281791
:10530000390738F49AE5C92EDD24D39424E0522ECF
:1053100009C0E3940A5F1F4F85E0E812E1CFEE2455
:10532000EA9447C0E51438F55A94B501852D0E94DA
:10533000C5236981C60104970E940D256A81C601B3
:1053400003970E940D256B81C60102970E940D25CF
:105350006C81C60101970E940D258D819E819887E1
:105360008F83BE01695F7F4FC6010E94E62496E0ED
:10537000C91AD108D7CF60E0C801825C9E4F0E9455
:105380000D2560E0C801815C9E4F0E940D2560E004
:10539000C801805C9E4F0E940D25642DC8018F5B63
:1053A0009E4F0E940D25BE01635F7F4FC3010E9487
:1053B000E624E092690789E08093C50280E8809343
:1053C000080120E04EE159E060E070E081E190E00A
:1053D0000E94071D07E110E0E12CB6E04B2E8AE0A9
:1053E000582EBE01695F7F4F8E2D0E94C5232F81ED
:1053F0004AEA58E0B8018CE190E00E94071D288538
:105400004AEA58E0B80181E290E00E94071D298530
:105410004AEA58E0B80186E290E00E94071DF501D3
:10542000242D11922A95E9F78B859C853501F5018C
:10543000B4010E94952D8193CB01FE12F9CFADE40A
:10544000CA2ED12CF30121913F0146E75DE0B8015E
:10545000C6010E94071DF5E0CF1AD1082FE2C2163F
:10546000D10481F78A85652D0E94892D282F46E772
:105470005DE0B8018DE590E00E94071D8A85652DED
:105480000E94892D292F46E75DE0B80182E690E071
:105490000E94071DE394085F1F4F85E0E812A1CF2B
:1054A000609169076F3F09F446C18091C3028F5F25
:1054B0008093C3028832E8F498E0699FB001112418
:1054C000695E7F4F20E045EA58E086E190E00E9467
:1054D000071D60916907E8E06E9FB0011124695EC5
:1054E0007F4F20E040EA58E089E690E00E94071DE7
:1054F00004C0813510F01092C30280916A07609158
:10550000690781112CC0F8E06F9F800111240A5EA9
:105510001F4FFBE1CF2ED12C21E047E0B801C6019F
:105520000E9403202FEFC21AD20A80E2C816D104CB
:1055300099F76091690798E0699FB0011124695E4D
:105540007F4FEBEFCE2EE12C00E010E020916B07B7
:105550004AEA58E08CE190E00E94CC1A0EC0E8E0E4
:105560006E9FB0011124695E7F4F20916B074AEA5C
:1055700058E08CE190E00E94071D80916A076091DD
:105580006907813061F5F8E06F9F800111240A5EA0
:105590001F4F50E2C52ED12C21E047E0B801C601D3
:1055A0000E9403202FEFC21AD20A85E2C816D10446
:1055B00099F76091690798E0699FB0011124695ECD
:1055C0007F4F4BEFC42EE12C00E010E020916C07E0
:1055D0004AEA58E081E290E00E94CC1A0EC0E8E06E
:1055E0006E9FB0011124695E7F4F20916C074AEADB
:1055F00058E081E290E00E94071D80916A070091C7
:105600006907823061F5F8E00F9F800111240A5E7E
:105610001F4F35E2C32ED12C21E047E0B801C6016F
:105620000E9403202FEFC21AD20A8AE2C816D104C0
:1056300099F76091690798E0699FB0011124695E4C
:105640007F4F2BEFC22EE12C00E010E020916D0780
:105650004AEA58E086E290E00E94CC1A0FC0E8E0E7
:105660000E9F80011124B801695E7F4F20916D0764
:105670004AEA58E086E290E00E94071D10916A070E
:1056800080E80E94F81F882359F0E12FF0E0E759E5
:10569000F84F8281833211F4128202C08F5F8283BD
:1056A00080E10E94F81F882359F0E12FF0E0E759CC
:1056B000F84F8281811102C083E201C08150828350
:1056C00080E20E94F81F882329F0112319F011505D
:1056D00010936A0780E40E94F81F882339F08091B4
:1056E0006A07823018F48F5F80936A0788E00E940F
:1056F000F81F882309F494C000916907F6E00F9F12
:105700008001112460916B07C801825C9E4F0E944A
:105710000D2560916C07C801815C9E4F0E940D258C
:1057200060916D07C801805C9E4F0E940D258FEF30
:105730008093690775C088E00E94F81F81117BC0C3
:1057400084E00E94F81F811176C06AC020E044E323
:1057500058E066E070E085E290E00E94071D21E0DD
:1057600046E369E170E085E290E00E94241D21E0BB
:1057700046E36BE170E085E290E00E94241D809199
:10578000C4028F5F8093C402863480F4282F30E0F7
:10579000F901EE0FFF1FEC53FE4F40815181F901DB
:1057A000E258FE4F10818C3330F003C010E040E02F
:1057B00050E01092C40220E066E270E086E290E0E1
:1057C0000E94071D20E048E158E066E270E08CE4AA
:1057D00090E00E94071D212F4AED57E066E270E03D
:1057E0008CE490E00E94F71C20E042EC57E062E37A
:1057F00070E080E290E00E94071D20E041EA57E05F
:1058000062E370E084E490E00E94071D88E00E945B
:10581000F81F811114C084E00E94F81F81110FC08D
:1058200081E00E942F2080E090E0892B09F4D8CA03
:105830000E940000D5CA8AE08093C502F1CF109281
:10584000C502EECF04970C94722CEDE9F7E01382B9
:10585000128288EE93E0A0E0B0E084839583A68373
:10586000B78382E992E0918380838FEF9FEF9587E2
:105870008487EAE7F7E0138212821186128680E1BC
:105880008387108617821586108A1786128A118AD6
:1058900081E0838B148A858B168A84EA92E0918357
:1058A000808382EB92E09583848380EE97E19093EE
:1058B00068078093670780E090E89093FA078093E9
:1058C000F90746983E9A47983F9A109279071092A6
:1058D0007807E9E6F7E08FEF808311821282138266
:1058E000148208950F931F93CF93DF938C0181E06F
:1058F00090E00E94102D80FF32C08AE090E00E946C
:10590000102D9FEF980F9E3F50F522E330E0D80115
:1059100050963C932E931F9728E330E052963C9389
:105920002E935197CBE0D0E0D801ED91FC910190FE
:10593000F081E02D682FC8010995CE010E94102D3D
:105940002196C131D10581F780E00E942F2088EE99
:1059500093E0DF91CF911F910F910C94171DDF9170
:10596000CF911F910F9108958F929F92AF92BF9206
:10597000CF92DF92EF92FF92CF93DF93EC01688199
:1059800079818A819B81611571058105910521F4D9
:1059900064E279ED8BE597E02DE133EF41E050E0F3
:1059A0000E94262D49015A019B01AC01A7EAB1E4EE
:1059B0000E94452D6B017C01ACEEB4EFA501940172
:1059C0000E94532DDC01CB018C0D9D1DAE1DBF1D12
:1059D000B7FF03C00197A109B04888839983AA83C0
:1059E000BB83BC01CD019F77DF91CF91FF90EF90FA
:1059F000DF90CF90BF90AF909F908F9008950E94BE
:105A0000B42C08958DE091E00E94B42C0895609329
:105A10000D0170930E0180930F0190931001089572
:105A2000F999FECF92BD81BDF89A992780B5089566
:105A3000262FF999FECF1FBA92BD81BD20BD0FB6AA
:105A4000F894FA9AF99A0FBE01960895052E97FBDD
:105A50001EF400940E943D2D57FD07D00E94582D42
:105A600007FC03D04EF40C943D2D50954095309595
:105A700021953F4F4F4F5F4F0895909580957095BA
:105A800061957F4F8F4F9F4F08950E947A2DA59F5C
:105A9000900DB49F900DA49F800D911D1124089529
:105AA000B7FF0C94452D0E94452D821B930B089542
:105AB000A1E21A2EAA1BBB1BFD010DC0AA1FBB1F12
:105AC000EE1FFF1FA217B307E407F50720F0A21B84
:105AD000B30BE40BF50B661F771F881F991F1A94F1
