:100000000C94A2100C94CA100C94CA100C94CA1030
:100010000C94CA100C94CA100C94CA100C94CA10F8
:100020000C94CA100C94CA100C947E270C94ED27E3
:100030000C94CA100C94CA100C94CA100C94CA10D8
:100040000C94CA100C94CA100C94CA100C94CA10C8
:100050000C94CA100C94CA100C94CA100C941F2A49
:100060000C94CA100C94CA100C94CA100C94CA10A8
:100070000C94CA100C94CA100C94CA100C94CA1098
:100080000C94692A0C94CA100C94CA100C94CA10CF
:100090000C94CA100C94CA100C94CA100C94CA1078
:1000A0000C94CA100C94CA100C94CA100D090008C4
:1000B000200024882054201240040000000000008A
:1000C00000000000000000000D0900082288000860
:1000D00080042002900400000000000000000000E6
:1000E000000000000D0901900208000004000080DB
:1000F00011000800000000010000000000000100E5
:100100000D0902400000000400004001000002014F
:10011000000000000000000000000001F7000900DE
:10012000A5000A0000001E00F7000900A5000A0053
:1001300000001E00F7000900A5000A0000001E00D4
:10014000F7000900A5000A000080F7000900A500DB
:100150000A0000001E00F7000900A5000A000000C8
:100160001E00F7000900A5000A000080F700090042
:10017000A5000A0000001E00F7000900A5000A0003
:100180000080F7000900A5000A0000800B080E9807
:100190007D363C3C3C367D980E0B0870187DB6BC15
:1001A0003CBCB67D18700104B504020202050104CE
:1001B000B00E020202050104C70E0202020504028B
:1001C000B5370202020D02B54B0202020D034B3796
:1001D000FE02020D034B4BFE02020D0402B50402A7
:1001E00002020502B51802020205034B04FE0202D8
:1001F00005034B18FE020205020339320202020D0A
:1002000003B00E4602020D020239320202020D0252
:10021000B00E4602020D0203390E0202020503B0BF
:100220000E020202050201390E0202020501B00EA1
:10023000020202050203B00E3202020D03C746029B
:1002400002020D0202B00E3202020D02C746020285
:10025000020D0203B00E0202020503C70E020202E3
:10026000050202B00E0202020502C70E02020205DA
:100270000403B52D0202010D03B5410202010D0276
:100280004B2DFE02010D024B41FE02010D0402B591
:100290002D0202010D02B5410202010D034B2DFE9C
:1002A00002010D034B41FE02010D0403B5040202DD
:1002B000010503B51802020105024B04FE02010507
:1002C000024B18FE0201050402B5040202010502F8
:1002D000B51802020105034B04FE020105034B1889
:1002E000FE020105020339410202010D03B00E2D89
:1002F00002010D020239410202010D02B00E2D026F
:10030000010D0203390E0202010503B00E020201C3
:10031000050202390E0202010502B00E02020105B9
:100320000203B00E3202010D03C7410202010D02A9
:1003300002B00E3202010D02C7410202010D02039A
:10034000B00E0202010503C70E020201050202B04F
:100350000E0202010502C70E020201050401B00EE1
:100360003202000D01D1460202000D0350182D0289
:10037000000D037150FD02000D0402B00E320200A8
:100380000D02D1460202000D03B0182D02000D032C
:10039000D1500202000D0403B00E0202000503D189
:1003A0000E02020005035018FD020005037118FD3E
:1003B0000200050402B00E0202000503D10E020283
:1003C000000502B0180202000503D1180202000560
:1003D0000400B5370202020D00B54B0202020D0106
:1003E0004B37FE02020D014B4BFE02020D0400B51D
:1003F000040202020500B51802020205014B04FEC8
:10040000020205014B18FE02020502013932020206
:10041000020D01B00E4602020D0200393202020244
:100420000D00B00E4602020D0201390E0202020555
:1004300001B00E020202050200390E02020205009E
:10044000B00E020202050201B00E3202020D01C717
:10045000460202020D0200B00E3202020D00C74633
:100460000202020D0201B00E0202020501C70E02D5
:100470000202050200B00E0202020500C70E0202CF
:1004800002050401B52D0202010D01B54102020170
:100490000D024B2DFE02010D024B41FE02010D0427
:1004A00000B52D0202010D00B5410202010D014B04
:1004B0002DFE02010D014B41FE02010D0401B504A8
:1004C0000202010501B51802020105024B04FE02F9
:1004D0000105024B18FE0201050400B504020201E9
:1004E0000500B51802020105014B04FE02010501D9
:1004F0004B18FE020105020139410202010D01B053
:100500000E2D02010D020039410202010D00B00E54
:100510002D02010D0201390E0202010501B00E0289
:100520000201050200390E0202010500B00E0202AE
:1005300001050201B00E3202010D01C741020201A4
:100540000D0200B00E3202010D00C7410202010D82
:100550000201B00E0202010501C70E0202010502EE
:1005600000B00E0202010500C70E020201050402DE
:10057000B00E3202000D02D1410202000D005018EF
:100580002D02000D007150FD02000D0400B00E326E
:1005900002000D00D1410202000D01B0182D020031
:1005A0000D01D1500202000D0402B00E020200053E
:1005B00002D10E02020005005018FD020005007174
:1005C00018FD0200050400B00E0202000500D10E65
:1005D0000202000501B0180202000501D118020252
:1005E00000050B084281A991A981A5B5AD814221E1
:1005F000100101F929291101F12929F101798181DC
:10060000790191A9A94901F9A9A98901F9898971F2
:1006100001010404040404040404040404040404A0
:10062000040404040404040404040404040404048A
:10063000040404830028000000F40100800B023C45
:10064000000000F4010080330B01017189A9E90168
:10065000F9A9A989010909F9090901010101F92982
:1006600029D101F9A9A98901F12929F101F989897A
:10067000710199A1A179010101B9010104040404E6
:10068000040404040404040404040404040404042A
:10069000040404040404040404040404040404041A
:1006A0000404040404040404040404040404042CE2
:1006B0000B0101010101798141817901F12929F1C0
:1006C000017981611901F9A9A989010101010101DA
:1006D0000101010101010101010101010104040401
:1006E00004040404040404040404040404040404CA
:1006F00004040404040404040404040404040404BA
:100700000404040404040404044C14010101010160
:1007100001798141817901F12929F10179816119F9
:1007200001F9A9A989010101718989510171898999
:100730007101F9112111F901F949493101F9818159
:100740008101F9A9A9890109F9090901F9A9A98969
:10075000010101010101010000F82828080078804A
:10076000807800F8A8A88800F88080800000F8A8A9
:10077000A850007088887000F81020F800788080F9
:10078000780090A8A8480050000000000000000079
:100790000000000000000000000000000000000059
:1007A00000000008080808080808080808080808E1
:1007B00008080808080808080808080808080808B9
:1007C00008080808080808080808080808080808A9
:1007D0000808080808080808080808080808080899
:1007E000080808080808080808080808080808078A
:1007F00019008C5E56529E0000FE00AA00FE00000A
:100800007F80AA807F0000000000000000071F001A
:10081000A2129612A60000FF00AA00FF0000FF002F
:10082000AA00FF00001F202A201F000505151F0A2F
:100830000E040504060D0909060E040406040F0241
:10084000040906060904090604040F05060708073B
:10085000010F0609070106020204080F060906092E
:100860000603040A09060E4000FF00000000000015
:1008700000000000000000FF000000000000000079
:100880000000000000FF0000000000000000000069
:10089000000000FF00000000000000000000000059
:1008A00000FF00000000000000000000000000FF4A
:1008B00000000000000000000000000000FF000039
:1008C0000000000000000000000000FF0000000029
:1008D00000000000000000000108000000E0F0E05F
:1008E000E0F0F8F0E0E0F0E00000040F0F6FFF6FC1
:1008F0003F7F3F6FFF6F0F0F040F10000000E000FD
:1009000080E030E08000E0000000000407026B039C
:100910000C260C036B020704000000E0F0E0E0F09E
:10092000F8F0E0E0F0E00000040F2F7F7F7F3F7FD2
:100930003F7F7F7F2F0F040F10000000E00080E05A
:1009400030E08000E0000000000407222B230C268A
:100950000C232B220704000000E0F0E0E0F0F8F0A8
:10096000E0E0F0E00000040F0F0F1F0F1F0F1F0F3C
:100970001F0F0F0F040F10000000E00080E030E0B8
:100980008000E0000000000407020B030C060C03CB
:100990000B02070400BAFFFAF0E4EEF6FFF6EEE40D
:1009A000F0FAFFBA040F0F0F1F0F1F0F1F0F1F0FBB
:1009B0000F0F040F1000BA00E00084E032E0840062
:1009C000E000BA00000407020B030C060C030B0244
:1009D00007040068FCE8F0E8FCFCFEFCFCE8F0E83A
:1009E000FC68040F0F0F1F0F1F0F1F0F1F0F0F0F9C
:1009F000040F10006800E00088E034E08800E000A8
:100A00006800000407020B030C060C030B0207042A
:100A100000FFFF000000000000000000000000FFD9
:100A2000010100000000000000000000000001FFC4
:100A3000FF0000000000000000000000FFFF0101B7
:100A400000000000000000000000000101FFFFFFA7
:100A5000000000000000000000FFFFFF0101010096
:100A60000000000000000000010101FFFFFFFF0087
:100A7000000000000000FFFFFFFF01010101000076
:100A8000000000000001010101FFFFFFFFFF000067
:100A9000000000FFFFFFFFFF010101010100000056
:100AA00000000101010101FFFFFFFFFFFFFF00FF49
:100AB000FFFFFFFFFFFF0101010101010100010133
:100AC0000101010101FFFFFFFFFFFFFF00FFFFFF2B
:100AD000FFFFFFFF0101010101010100010101010F
:100AE000010101FFFFFFFFFFFFFFFFFFFFFFFFFF10
:100AF000FFFF0101010101010101010101010101EA
:100B000001FF00000000000000FFFFFF00000000E8
:100B100000FFFFFFFFFF000000FFFFFFFFFFFFFFE1
:100B200000FFFFFFFFFFFFFFFFFFFFFFFFFFFFFFD4
:100B3000FFFFFFFFFFFFFFFFFFFFFFFFFFFFFFFFC5
:100B4000FFFFFFFFFFFFFFFFFF0F09FF0000000097
:100B5000000000000000000000FF01000000000095
:100B600000000000000000000100FF000000000085
:100B7000000000000000FF00000100000000000075
:100B8000000000000001000000FF00000000000065
:100B9000000000FF00000000010000000000000055
:100BA0000000010000000000FF0000000000000045
:100BB000FF00000000000001000000000000000134
:100BC00000000000000000FF0000000000FF000027
:100BD0000000000000000100000000000100000013
:100BE000000000000000FF000000FF000000000007
:100BF00000000000000100000001000000000000F3
:100C00000000000000FF00FF0000000000000000E6
:100C100000000000010001000000000000000000D2
:100C200000000000FF0000000000000000000000C5
:100C300000000001000000000000000908FF0000A3
:100C40000000000000FF00FF0000000000FF0000A7
:100C500000FF000000FF0000000000FF00FF000098
:100C60000000000000FF0000000000000000000085
:100C700000000000000000000000000038FE7DFEC3
:100C8000FEFEFEFEFEFE7DFF2F00000100000000C4
:100C900000000001000054FE7CFE7CFEFFFE7CFE96
:100CA0007C7C280000000000000100000000000023
:100CB00012BFFFFFFEFCFCFCFEFFFFBF12000001A5
:100CC0000000000100000001000070FAFFFFFEFFBD
:100CD0007EFFFEFFFFFA7000000001000000000030
:100CE00001000000FFFFFFFFFFFFFFFFFFFFFFFF0F
:100CF000000F0F0F0F0F0F0F0F0F0F0F0F00000040
:100D0000FFFFFFFFFFFFFFFF0000000000070707D6
:100D100007070707070000002A5D3E3E3E5D2A00E8
:100D2000143E3E7F3E1C08002A7F3E7C3E7F2A0008
:100D30002A7F3E7C3E7F2A00183C7EFFFF7E3C18C7
:100D400000FFFFFFFFFF0000387C7CFEFEFEFEFE82
:100D5000FEFE7C7C38000000000000000000000067
:100D60000000287C7CFE7CFEFFFE7CFE7CFE5400A6
:100D7000000000000001000000000000143EFEFF23
:100D8000FEFC7CFCFEFFFE3E1400000001000000A3
:100D9000000001000000307CFEFFFEFFFEFFFEFFB2
:100DA000FE7C300000000001000000010000000097
:100DB000FFFFFFFFFFFFFFFFFFFFFFFF000F0F0F12
:100DC0000F0F0F0F0F0F0F0F0F000000FFFFFFFFA0
:100DD000FFFFFFFF000000000007070707070707E6
:100DE00007000000081C3E3E3E1C0800081C3E7F19
:100DF0003E3E14000C3E7E3C7E3E0C001C3E7E3F80
:100E00007E3E1C00183C7EFFFF7E3C1800FFFFFF6B
:100E1000FFFF00000A1F0E1F0A010808002A1C1409
:100E20001C2A000000141C2A1C080000002A143888
:100E3000142A0000002A1438142A00000018244A3A
:100E4000422418000000543A54000000080800082A
:100E50001C141C08000000081C221C140000000CBC
:100E60003418340C0000001C341A341C0000001824
:100E7000244A422418000000543A540000000101A2
:100E800001AF001600AF001600AF0016000080DCB6
:100E900000090093000A0083000600AF000A00006A
:100EA00080830028000000140006012800000014C0
:100EB000000B022800000014000080DC00090093F1
:100EC000000A0083000600AF000A00F7000900A531
:100ED000000A00DC00090093000A0083000600AF4E
:100EE000000A00F7000900A5000A00DC00090093D1
:100EF000000A0083000600AF000A00F7000900A501
:100F0000000A000080AF00030026010400B80104BD
:100F100000A50001000080DC00090000800505003C
:100F20000A040A00DC00090093000A00830006009E
:100F3000AF000A00F7000900A5000A00DC00090064
:100F400093000A0083000600AF000A00F7000900C2
:100F5000A5000A00DC00090093000A0083000600D7
:100F6000AF000A00F7000900A5000A0000800B028C
:100F70003200830064004100C800008000000000CF
:100F8000003E5B4F5B3E3E6B4F6B3E1C3E7C3E1C0F
:100F9000183C7E3C181C577D571C1C5E7F5E1C0055
:100FA000183C1800FFE7C3E7FF0018241800FFE70C
:100FB000DBE7FF30483A060E2629792926407F05CF
:100FC0000507407F05253F5A3CE73C5A7F3E1C1CE5
:100FD00008081C1C3E7F14227F22145F5F005F5FA5
:100FE00006097F017F006689956A60606060609491
:100FF000A2FFA29408047E040810207E2010080896
:101000002A1C08081C2A08081E101010100C1E0CA0
:101010001E0C30383E3830060E3E0E060000000032
:101020000000005F00000007000700147F147F1419
:10103000242A7F2A1223130864623649562050005E
:1010400008070300001C2241000041221C002A1C4A
:101050007F1C2A08083E0808008070300008080835
:101060000808000060600020100804023E51494555
:101070003E00427F400072494949462141494D3373
:101080001814127F1027454545393C4A49493141DA
:10109000211109073649494936464949291E0000A8
:1010A00014000000403400000008142241141414FD
:1010B0001414004122140802015909063E415D59E9
:1010C0004E7C1211127C7F494949363E41414122F2
:1010D0007F4141413E7F494949417F090909013E1C
:1010E000414151737F0808087F00417F4100204043
:1010F000413F017F081422417F404040407F021C55
:10110000027F7F0408107F3E4141413E7F0909096B
:10111000063E4151215E7F09192946264949493237
:1011200003017F01033F4040403F1F2040201F3FFD
:101130004038403F63140814630304780403615982
:10114000494D43007F4141410204081020004141C4
:10115000417F040201020440404040400003070870
:101160000020545478407F2844443838444444286C
:10117000384444287F385454541800087E09021813
:10118000A4A49C787F0804047800447D400020409B
:10119000403D007F1028440000417F40007C0478DF
:1011A00004787C080404783844444438FC18242427
:1011B0001818242418FC7C080404084854545424A7
:1011C00004043F44243C4040207C1C2040201C3C24
:1011D0004030403C44281028444C9090907C44641B
:1011E000544C4400083641000000770000004136AE
:1011F000080002010204023C2623263C1EA1A16134
:10120000123A4040207A3854545559215555794165
:101210002154547841215554784020545579400C3C
:101220001E5272123955555559395454545939551D
:101230005454580000457C410002457D4200014560
:101240007C40F0292429F0F0282528F07C545545CD
:10125000002054547C547C0A097F49324949493260
:101260003248484832324A4848303A4141217A3A75
:1012700042402078009DA0A07D39444444393D403F
:1012800040403D3C24FF2424487E4943662B2FFCEC
:101290002F2BFF0929F620C0887E0903205454799A
:1012A000410000447D413048484A32384040227A6B
:1012B000007A0A0A727D0D19317D2629292F2826E8
:1012C0002929292630484D402038080808080808F0
:1012D0000808382F10C8ACBA2F102834FA00007B49
:1012E000000008142A142222142A1408950022004F
:1012F00095AA005500AAAA55AA55AA000000FF0009
:10130000101010FF00141414FF001010FF00FF1045
:1013100010F010F0141414FC001414F700FF000077
:10132000FF00FF1414F404FC141417101F10101FF6
:10133000101F1414141F00101010F0000000001FE4
:10134000101010101F10101010F010000000FF10EF
:101350001010101010101010FF10000000FF1400EB
:1013600000FF00FF00001F10170000FC04F414141D
:101370001710171414F404F40000FF00F7141414E9
:1013800014141414F700F7141414171410101F1069
:101390001F141414F4141010F010F000001F101F8C
:1013A0000000001F14000000FC140000F010F010FA
:1013B00010FF10FF141414FF141010101F00000071
:1013C00000F010FFFFFFFFFFF0F0F0F0F0FFFFFF75
:1013D0000000000000FFFF0F0F0F0F0F38444438CC
:1013E000447C2A2A3E147E02020606027E027E0207
:1013F00063554941633844443C04407E201E200626
:10140000027E020299A5E7A5991C2A492A1C4C7262
:1014100001724C304A4D4D303048784830BC625AE9
:10142000463D3E494949007E0101017E2A2A2A2A79
:101430002A44445F444440514A444040444A514055
:101440000000FF0103E080FF000008086B6B083616
:1014500012362436060F090F060000181800000087
:101460001010003040FF0101001F01011E00191D76
:101470001712003C3C3C3C0000000000080B00023E
:10148000020200000904000001020200000524001D
:1014900010010524010101042402060524060001AF
:1014A0000705810310004009040100020A00000042
:1014B0000705020240000007058302400000040304
:1014C000090412010002EF020140412336800001AD
:1014D0000102030141726475696E6F204C4C430038
:1014E00041726475696E6F204C656F6E6172646FD6
:1014F00000D5F08D14A1C881CFD9F1AF20001F080D
:10150000031C700F00304870007C0870087000F8F1
:1015100048300074007810007A003048005868168F
:10152000077F090175007F007C0870087000304853
:1015300030027F02304858050A01041040000000C4
:101540000000010004104000000000000101001034
:101550004000000000000101040040000000000005
:10156000010104100000000000000101041040000F
:1015700000000000000D0A000001071F7CFF3F076C
:101580007168C81C00000000000000000301010099
:10159000003510000080E0781E0703030383E37C1E
:1015A0000F0909FFFB00F8FFFF1F190100FF0101F0
:1015B00001F2FC003FFCF101033FFDF180020F1935
:1015C00019191B1A70E08000082EAFADACACACA4AA
:1015D000802CAF03000000AFAF00AEAFAFAFACAC3C
:1015E000AC00AFACACACAFA70000AFAFAE0000AF8B
:1015F000AFAF2C0003AB06AEAEAEAF2F0603061F97
:101600000E040306040E1F03071F051F1F151B1FD3
:1016100011111F110E1F15111F05011F111D1F0490
:101620001F001F0010101F1F041B1F10101F061F7C
:101630001F011F1F111F1F05071F311F1F051B172C
:10164000151D011F011F101F0F100F1F0C1F1B0462
:101650001B071C071915131F111F001F001D15174D
:1016600011151F07041F17151D1F151D01011F1F31
:10167000151F17151F0017000020005D1200000045
:101680000080C0F0383C3EB2F0781CC6F27C0E827E
:10169000E0781C06C6E6E6E60682F87E363030F0D4
:1016A000FE06000000903C26262626E6CE8C00FC96
:1016B000F606060606060C000CFEF2820202063C46
:1016C000F0C61E7AE2E2627C7060C28E1E7EE6E6A2
:1016D000E664400000000000000000185C4E0301BA
:1016E00000185C4F03185C5F4F03005E5F5F5C5C3B
:1016F0005C5C0C07005C5F070000005F5F0300009C
:1017000000004F5F585858585F5F4F000F5F5C589C
:10171000585858585E5C00070F58585858585F5E24
:101720000001475E18000000034F5C11034F5E5C30
:101730005C5C5C5C581000000000010000000000D0
:10174000010000000101010000010101010101008F
:101750000000010100000000010100000000000085
:10176000010101010101010100000101010101016B
:10177000010100000000010101010101000001015F
:101780000000000000010100000101010101010150
:10179000010000007D1C00000000000000000000AF
:1017A000C0F07C1E0E0606060626363E1E06C0F853
:1017B0003E06060606C6FEFEFE0E00F0FEFEFEFE1D
:1017C000F8800080C0F0FCFEFEFE0000FEFEFE067B
:1017D0000606060606000000FCFEFEFE02020206E9
:1017E0007E7EFCE0001E7EFEFEFCE0000000FEFEB1
:1017F000FE0000003EFEFEC60606060000063EFA9B
:10180000E2820202041C78C0808080000000000098
:101810000000000000000000C0E0F83E0F070100DB
:10182000000486E6FEFE7E0EC0F8FEFF07060606F2
:101830000606FFFFFF0300FCFFFF7F07FFFFFFFE21
:101840007F0FFFFFFFFFFF0000FFFFFF0E0E0E0EDA
:101850000C00000000FFFFFFFF000000000000FF81
:10186000FFFC0000030F7FFFFFF8E0FFFFFFF80021
:1018700000007FFFFFFE8E0E0E0C0000033FFFFEF8
:10188000FEE282020303030F7FFFFEF8E000000088
:101890000000505C5F5F59585858585858585E5F60
:1018A0005F4F03185E5F5F470000000000005F5F4E
:1018B0005F03005F5F5F5F00005F5F5F0700000125
:1018C0005F5F5F5F00005F5F5F585858585858006F
:1018D00000000F5F5F5F5858585858585F5F0F00FF
:1018E00000000000034F5F5F5F5F5F5F000000006C
:1018F0004F5F5F5F5C585858585800014F5F5F5FFB
:101900001C0000000000475F5F5F5F1C00000000DC
:10191000010505050505050505050505050505057B
:101920000400010505050400000000050505000090
:101930000505050500000505050000000005050575
:101940000500000505050505050505050000000065
:101950000505050505050505050505000000000050
:10196000000005050505050100000000000505054E
:101970000505050505010004050505010000000039
:101980000004050505050100000020100078283836
:10199000007828384000786848005868680058681F
:1019A000680000FC02722A2A7202FC00000000009B
:1019B0000000000000000000000000000000000027
:1019C0000000000001010101010100000B05110AE6
:1019D000040A110000121915120D0C0038287C6C35
:1019E0007C6C7C6C7C28380000000000000000004B
:1019F000000000000000282844386CC66C384428D9
:101A00005400000000000000000000000000000082
:101A1000142CF25428282854F22C14000000000042
:101A200000000000000000000000304C1AE47E6C52
:101A30007EE41A4C300000000000000000000000AE
:101A40000000000060D824140A0A04049860000012
:101A50000000010202040402020100000000000074
:101A6000402CFAF22C4000000000000000020100AF
:101A7000000102000000000D0C1028BA6C7C6C7C88
:101A80006C7C6CBA28100000000000000000000010
:101A900000000000542844386CD66C3844282800D4
:101AA000000000000000000000000000000012AA7A
:101AB000725428A8285472AA1200000000000000E6
:101AC0000000000000000000700ADA247E2C7E2452
:101AD000DA0A7000000000000000000000000000B2
:101AE000000060D824140A0A040498600000000072
:101AF0000102020404020201000000000000402C68
:101B0000FAF22C4000000000000000020100000179
:101B1000020000000004050E11190E00121F101221
:101B20001915120A11150A06051F04171515090EB5
:101B3000151508011905030A15150A121509060BD2
:101B4000088000000000800000000080550F0000A9
:101B5000800030382C26E2E2E202CEE4180C0202C9
:101B60000282E2300C0202E27E06F0FE22223AFC01
:101B7000C000FE262222020000000002020E7EFEAD
:101B8000F202007CFAF2121EF8861AF2F2B234382F
:101B9000C28E3EF8E2861E3E76E2E2A02000000001
:101BA00000000000030A2A2A2A2A2B2B2920010BD5
:101BB0002B2B2B2B21082B2A2A2A2A2B2B002B2BD1
:101BC0002B00282B2B03282B2B2A2A2A000000006D
:101BD000000000002B2B2B00002B2B0000002B2AD9
:101BE00008232B2A2A2B0B22282B2B2A2A0A2229CC
:101BF0002B2B2A2A2A0A02001D08010202020202D5
:101C000002020202020202020202020202020202B4
:101C1000020202020202012508010202020202027D
:101C20000202020202020202020202020202020294
:101C3000020202020202020202020202020117086A
:101C40000102020202020202020202020202020275
:101C5000020202020202011D080201394545017D0E
:101C60001569017D5545017D4539017D01057D05DC
:101C7000014955350102250802017D117D017D01D3
:101C80007D4575017D117D01495535013945450178
:101C9000394539017D1569017D5545010217080255
:101CA0000149553501057D0501791579017D1569D4
:101CB00001057D0501025E3000000000000000000B
:101CC0000000000000000000000000000000000014
:101CD000000000000000C0F0FCFE1EC0F0FC0EA0E2
:101CE00000000000000000FEFE00FEFEC2820A2A84
:101CF000AAAA82063EF8E61EFAE2820A22A2A68E6E
:101D00009C3870E0C080000000000000000000006F
:101D100000000000000000000000000000000000C3
:101D20000000000000000000000C2EAFADACACAC19
:101D3000ACACACAFAF870320A6AFAFAFAEACACAC32
:101D4000ACACACACACAF07A0AFAFAFA3A800000287
:101D50000AAAA0A0AFAF0003AFAEACACACACACACC9
:101D6000ACACAD2F0F06000000000000000000002A
:101D70000000000000000000000000000000000063
:101D800000000000000000000000020A0A2A2A2ABF
:101D90002A2A2A2A2A280002020A0A2A2A2A2A2A5F
:101DA0002A2A2A2A002A2A2A2A2A2A000000002A65
:101DB0002A2A2A2A00002A2A2A2A2A2A0A02020071
:101DC0000000000000000000000000000000000013
:101DD0000000000000000000C0E0F0F8FC7E676337
:101DE0006363636363636323030383F1FCFFFFC7E0
:101DF000000080E0FCFFE363636363636363637F0E
:101E00007E6060E0C080003C7F7F636363636363E8
:101E10006363636363E3E3EFEEE4C183131353137C
:101E200003474F1F3B73E3C3C38200000000000061
:101E30000010181C1E1F1F0F47415050440414541B
:101E4000545454540501181E1F1F1F1F074100182A
:101E50001F1F1F1F0340504000145454545454007B
:101E600000001F1F1F004F1F1C18191919191919DD
:101E7000191918181F1F1F1F1F1F4E0000505555FE
:101E8000555554545153474F1F1E1C181000000045
:101E9000000000000000000001010101010000013C
:101EA0000505040411010515555554400105051596
:101EB0001514504105155450410505050500005500
:101EC00055550100005555555555555555555555C0
:101ED0005555555555150501100405050501010118
:101EE0000101000000000000000000000208D4D240
:101EF00005087F7F3E1C084120FE0105F1F1F1112C
:101F0000D1B1D111F1515151515151515151515101
:101F10005151510000FF00007F7F09090F06007F2B
:101F20007F19396F46007F7F4949414100266F493B
:101F3000497B3200266F49497B32FF0000FFFFFFDB
:101F4000FEFFFEFF0279CD95A5CD7901111111019A
:101F5000F9F901010000FF00007F7F09090F060069
:101F60007F7F40404040007C7E0B0B7E7C00070F53
:101F700078780F0700000000000000FF00001F3FFE
:101F80003F33333333333E36363E363E363E3636D7
:101F90003E36363E360000FF00003E7F41417F3E28
:101FA000007F7F0E1C7F7F0000000000000000000B
:101FB0000000000000000000000000003F40504012
:101FC0004040784641415959414141415959414167
:101FD00041414141414100007F000001017F7F01FB
:101FE00001007C7E0B0B7E7C007F7F09090F0600C1
:101FF0007F7F4949414100000000000000830056F6
:1020000001000055008B005500000055008B005565
:1020100000000055008B005500000055008300565D
:1020200001000055008B005500000055008B005545
:1020300000000055008B005500000055008300563D
:102040000100800601550000005500060155000002
:10205000005500060155000000550006015500001E
:1020600000550015015500000055000601550000FF
:1020700000AC0106015500000055000601550000A6
:1020800000550006015500000055000601550000EE
:1020900000550015015500000055000601550000CF
:1020A00000AC010601AB000000AB000601AB000074
:1020B00000AB00150156010000AC010601550000FF
:1020C00000550006015500000055000601550000AE
:1020D000005500060155000000550015015500008F
:1020E000005500060155000000AC01060155000036
:1020F000005500060155000000550006015500007E
:10210000005500060155000000550015015500005E
:10211000005500060155000000AC01060155000005
:10212000005500150155000000550026015500001E
:10213000005500150155000000550006015500002E
:1021400080000F2B11241FBECFEFDAE0DEBFCDBF22
:1021500012E0A0E0B1E0ECEAF9E602C005900D92D1
:10216000AA3EB107D9F728E0AAEEB2E001C01D925D
:10217000A733B207E1F710E1C2EAD0E104C021972A
:10218000FE010E94C934C13AD107C9F70E945C2BF5
:102190000C94D4340C940000809103030895809132
:1021A000A8078F3FA9F034F48C3F59F08E3F71F0AF
:1021B00080E00895813099F074F08230C9F784E0AE
:1021C00001C08EEF8093A80781E008958FEFFACFCA
:1021D0001092A807F9CF81E08093A807089582E0C4
:1021E000F1CF8091A8078823A9F034F48E3F59F0ED
:1021F0008F3F71F080E00895823089F06CF0843078
:10220000C9F782E001C08CEF8093A80781E00895B0
:102210008EEFFACF8FEFF8CF1092A807F7CF81E0BB
:102220008093A807089590912A08982329F4909103
:102230002908982381E009F480E00895E1E2F3E0C1
:10224000A0E0B8E000800EBC8111012C1197A0FD28
:10225000FDCF0192B9F70DB40895FC0180912003E0
:10226000882311F13FB7F89482E08093E900209130
:10227000F200822F90E01816190614F481E090E025
:10228000882339F0289844E640931F034091F100D9
:102290004083222339F02091F200211103C02BE664
:1022A0002093E8003FBF08958FEF9FEF08952FB769
:1022B000F89483E08093E9009091E800892F807280
:1022C00095FF04C09091F20080E4891B2FBF089510
:1022D0008091170381110DC082E08093130384E085
:1022E00080931403109216031092150381E08093DB
:1022F000170383E193E008954091FD025091FE029F
:102300002091FB023091FC0242175307B4F49091E4
:10231000E8009570E1F39091E80092FD19C0809378
:10232000F1008091FD029091FE0201968F73992732
:10233000892B19F48EEF8093E8008091FD02909133
:10234000FE0201969093FE028093FD0281E00895C3
:1023500080E00895EF92FF920F931F93CF93DF9346
:10236000F82E192FE62E042F81E0860F880F0E9489
:102370007C1183E00E947C11CF2DD12FEC0EFD2E1D
:10238000F11CCE15DF05B9F007FF13C0FE018491E3
:102390000E947C11182F80E00E947C1181232196DD
:1023A0008111EFCFDF91CF911F910F91FF90EF90AF
:1023B00008958881EDCF81E0F5CFDF92EF92FF9213
:1023C0000F931F93CF93DF93D82E8A01EB017B01EC
:1023D000E40EF51ECE15DF0559F0D7FE12C0FE0142
:1023E00084910E947C1121968111F4CF0FEF1FEF91
:1023F000C801DF91CF911F910F91FF90EF90DF9077
:1024000008958881EECF0F931F93CF93DF931F9290
:10241000CDB7DEB782E0898342E450E06CE774E137
:1024200080E80E94DD110E946811DC0112960D9176
:102430001C910115110589F0D801ED91FC910280E4
:10244000F381E02DBE016F5F7F4FC801099597FDB5
:1024500004C0F80100851185ECCF89810F90DF91D0
:10246000CF911F910F910895615030F02091F100AC
:10247000FC0120830196F8CF289884E680931F03FF
:102480000895AF92BF92CF92DF92EF92FF920F9397
:102490001F93CF93DF936C017B018B01040F151FFA
:1024A000EB015E01AE18BF08C017D10759F0699162
:1024B000D601ED91FC910190F081E02DC6010995C6
:1024C000892B79F7C501DF91CF911F910F91FF9073
:1024D000EF90DF90CF90BF90AF900895CF93DF93B0
:1024E0001F92CDB7DEB76983DC01ED91FC910280CC
:1024F000F381E02D41E050E0BE016F5F7F4F099511
:102500000F90DF91CF91089583E08093E90080914F
:10251000F200882319F08AE38093E80008950E946E
:10252000571190E00895CF93DF931F92CDB7DEB798
:10253000FC018485958597FD08C02FEF3FEF358717
:1025400024870F90DF91CF910895CE0101960E94CC
:102550002D11019719F4898190E0F3CF8FEF9FEF50
:10256000F0CF0F931F93CF93DF931F92CDB7DEB7BA
:102570008C01FC018485958597FF0BC0CE010196E7
:102580000E942D11019771F4898190E0F8019587DF
:102590008487F801848595850F90DF91CF911F91F5
:1025A0000F9108958FEF9FEFF1CFFC018485958502
:1025B00097FD0BC09FB7F89482E08093E90080916B
:1025C000F2009FBF90E0019608959FB7F89482E0D3
:1025D0008093E9008091F2009FBF90E008953FB79B
:1025E000F8948091F7029091F802A091F902B091CD
:1025F000FA0226B5A89B05C02F3F19F00196A11D30
:10260000B11D3FBFBA2FA92F982F8827BC01CD013C
:10261000620F711D811D911D42E0660F771F881F9B
:10262000991F4A95D1F708958F929F92AF92BF92CA
:10263000CF92DF92EF92FF926B017C010E94EF122A
:102640004B015C01C114D104E104F104B9F00E9412
:10265000EF12681979098A099B09683E7340810560
:10266000910580F321E0C21AD108E108F10888EE53
:10267000880E83E0981EA11CB11CE4CFFF90EF9060
:10268000DF90CF90BF90AF909F908F9008958F92E2
:102690009F92AF92BF92CF92DF92EF92FF920F93F1
:1026A0001F93CF93DF936C017B018A0180910B0113
:1026B000882309F45CC080912003882309F457C063
:1026C0008091010380FF05C08091E00082608093CB
:1026D000E000E801B12C8AEFA82E93E0892E2AE3CE
:1026E000922E209711F4BB20D9F10E94571181112D
:1026F0000AC0AA94AA20D9F161E070E080E090E0DD
:102700000E941413EECF8C171D0611F00CF08C2FC5
:102710009FB7F8948092E9002091E80025FD02C05F
:102720009FBFDFCF282F30E0C21BD30BF7018150B2
:1027300020F041914093F100FACFE20EF31EBB204E
:1027400021F09092E800B12CEBCF8091E80085FD5C
:10275000E7CF9092E800BB24B394209709F3F3CF1E
:102760005D9884E680930003101611063CF081E02A
:1027700090E0F6019383828310E000E0C801DF91CE
:10278000CF911F910F91FF90EF90DF90CF90BF906E
:10279000AF909F908F90089520910C03E0910A03D1
:1027A000F0910B03CF01029690930B0380930A03E1
:1027B000222319F085919491089580819181089543
:1027C000E1E7F0E080818D7F808310929100469850
:1027D00047981092EF020895CF92DF92EF92FF9206
:1027E000CF93DF930E94CC13811520E8920741F428
:1027F000DF91CF91FF90EF90DF90CF900C94E0139A
:1028000021E02093EF02813020E8920751F480917B
:1028100008039091090390930B0380930A030E948D
:10282000CC1397FD05C02091EE02222309F45BC072
:102830002091ED02211157C021E02093F002EC011C
:10284000DF77209709F052C081E08093F10246982B
:102850003FE9C32E3FE0D32EE12CF12CCAEFD0E0AC
:10286000E0910808F09109080995811103C081E001
:102870008093F1028091F002882329F08091F10287
:10288000882309F446C047980E94CC13009709F4A6
:1028900044C09C01DE010E948634DC01CB0129E0AA
:1028A000B595A795979587952A95D1F710929000A1
:1028B0002AE020939100D0929900C09298008093D2
:1028C000F2029093F302A093F402B093F502809188
:1028D0007100826080937100DF91CF91FF90EF9043
:1028E000DF90CF9008951092F002A9CF9E0150E0A2
:1028F00040E060E472E48FE090E00E9432346901CD
:102900007A0181E0C81AD108E108F1081092F102B9
:10291000A7CF4699B8CF479AB7CF8FEF9FEFDC018B
:10292000C5CF9C01E1E7F0E090819D7F908381E03D
:1029300080930C0330930B0320930A033093090315
:10294000209308030C94EC136F927F928F929F92C6
:10295000AF92BF92CF92DF92EF92FF920F931F93AD
:10296000CF93DF934C01DB0158017C2D41155105BC
:1029700009F4A0C0FA016491319684914E5F5F4FD3
:10298000C62FD0E0211102C0EE2009F1E1E0F0E015
:10299000982F977011F4F0E0E0E0082F0695069567
:1029A00006950E0F1F2F111D0C9FF0010D9FF00DAE
:1029B0001C9FF00D1124733009F08BC0EE0FFF1F28
:1029C0002E9F80012F9F100D1124400F511F840155
:1029D0000C0F1D1F101611060CF06CC0F0E88F16BE
:1029E00091040CF067C09D01280F311D12161306CB
:1029F0000CF060C0A034B1050CF05CC0411551056D
:102A000009F458C03A2F3770FD01B7FD379693E0AF
:102A1000F595E7959A95E1F72E2FB7FF04C033237C
:102A200011F02FEF2E0FEE27FF27E819F90997FC79
:102A300002C0F0E0E0E090E89819003811050CF4CD
:102A4000962F9E1BA22F022E000CBB0B1A2F109547
:102A50002F3F0CF010E0DD24D394082F077009F409
:102A6000D12C869586958695D80EAD0DB11D1997FA
:102A70001CF0A8E0DA2ED21AD11A210F00E82003A8
:102A8000D0011124A80DB91DAE0FBF1F619FE00D2D
:102A9000F11D11244E0F5F1FE32E032E000CFF08C3
:102AA000733009F424C108F5713009F4D6C07230CE
:102AB00009F484C0DF91CF911F910F91FF90EF90A7
:102AC000DF90CF90BF90AF909F908F907F906F904E
:102AD0000895A114B10409F473CFEE9E8001EF9E16
:102AE000100D1124A00EB11E6BCF7A3FB1F10D2D48
:102AF000020F7B3FF9F62017E9F2BD016F5D7C4FB5
:102B0000D12CC12CC91608F0A2C0FA01EC0DFD1D94
:102B1000E491F0E04F010E2C02C0880C991C0A943D
:102B2000E2F727FD06C0FB018081182D1095812357
:102B30008083332361F0273054F45B01F0E8AF0E5B
:102B4000B11C192D1095F501808181238083FFEF41
:102B5000CF1ADF0A6F5F7F4FD5CF0D2D020F2017E1
:102B600009F4A8CFBD016F5D7C4FD12CC12CC916D3
:102B700008F067C0FA01EC0DFD1DE491F0E04F0193
:102B80000E2C02C0880C991C0A94E2F727FD04C0A1
:102B9000FB01808188298083332351F0273044F45E
:102BA0005B01F0E8AF0EB11CF501808189298083BB
:102BB000FFEFCF1ADF0A6F5F7F4FD9CF6FEF70E063
:102BC000032E02C0660F771F0A94E2F76095709596
:102BD000972E8D2C820E281509F46CCF8D010F5D78
:102BE0001C4FD12CC12CC91630F5FA01EC0DFD1D7E
:102BF000E491F0E03F010E2C02C0660C771C0A94B1
:102C0000E2F727FD05C0F8018081862386298083AD
:102C1000332359F027304CF45801F0E8AF0EB11CC3
:102C2000F5018081892187298083FFEFCF1ADF0A90
:102C30000F5F1F4FD8CF2F5F4C0F5D1FA058BF4FA6
:102C4000CACF2F5F4C0F5D1FA058BF4F88CF2F5F9B
:102C50004C0F5D1FA058BF4F4ECF85010E0F1F1F99
:102C60008D2D820F281709F425CFBD016F5D7C4F94
:102C7000D12CC12CC91698F5F801EC0DFD1DA490BE
:102C8000B12C0E2C02C0AA0CBB1C0A94E2F7A09433
:102C9000B094FA01EC0DFD1D8490912C0E2C02C015
:102CA000880C991C0A94E2F727FD08C0FB0170808C
:102CB000E72DEA217E2E7828FB017082332349F02C
:102CC00027303CF4FB01E058FF4FA080BA20B92820
:102CD000B082FFEFCF1ADF0A6F5F7F4FCBCF2F5F3E
:102CE0004C0F5D1F0C0F1D1FA058BF4FBBCFE92E0F
:102CF000F12CE40FF51FAF5DBC4F60E870E06E197A
:102D00007F09CE19DF09AE01440F551FC1E0D0E0A5
:102D10007E01032E01C0EE0C0A94EAF7192F0D2D47
:102D2000892E932ECF93DF93ED01EF96EF962296A7
:102D3000A590C590992059F0AE9C5001CE9C6001A1
:102D400027302CF4F880D094FD20FB28F992222320
:102D50003AF0FC90C094FC20FA28FD920C94B11635
:102D600011961A9529F70A9551F0182D23951124DB
:102D7000E40FF11DA60FB11DC60FD11DD9CFDF91F4
:102D8000CF91112497CECF92EF920F931F933AEFEA
:102D9000C32EE12C10E000E00E94A4141F910F91BB
:102DA000EF90CF900895CF92EF920F931F9332E060
:102DB000C32EE12C10E000E00E94A4141F910F919B
:102DC000EF90CF900895BC0190E080E00C94141334
:102DD0008FB18095807F669B88601C9B846008957E
:102DE0005C988EBD00000DB407FEFDCF5C9A08957F
:102DF000480F592F511D14161506D4F5803891052A
:102E0000BCF597FF02C090E080E04138510514F016
:102E100040E850E0481BFB0177FD379633E0F5951D
:102E2000E7953A95E1F7F695FE2FEE27F795E795AA
:102E3000E80FF91FEF5DFC4F6770772781E090E0A6
:102E400001C0880F6A95EAF7382F213041F44150CC
:102E500078F08191DF011197832B8C93F8CF8095C7
:102E6000415030F09191DF01119798239C93F8CF56
:102E700008950F931F93CF93DF93D0E0C0E000E855
:102E800010E020E040910D01BE0190E080E00E9442
:102E9000F81680910D01BE016F5F7F4F20E0482F33
:102EA000F801E81BF109CF010E94F8162296C03400
:102EB000D10539F7DF91CF911F910F91089520E14E
:102EC00091E061FD94E060FD990F62FD9295687F4D
:102ED000269FD0011124A80FAF5DBC4F8C9140FFFD
:102EE00003C0892B8C93089590958923FBCF80385C
:102EF000910528F46034710510F40C945F1708955F
:102F0000DF92EF92FF920F931F93CF93DF937C0199
:102F1000EB01D22E8B01040F111DC80101341105E4
:102F200014F080E490E0C817D9073CF44D2DBE01A1
:102F3000C7010E9477172196F0CFDF91CF911F91A3
:102F40000F91FF90EF90DF900895CF92DF92EF9274
:102F5000FF920F931F93CF93DF936B01122FEC011E
:102F60007C01E40EF11CCE15DF0544F4202F412F27
:102F7000B601CE010E9480172196F5CFDF91CF9147
:102F80001F910F91FF90EF90DF90CF9008956F9277
:102F90007F928F929F92AF92BF92CF92DF92EF92E9
:102FA000FF920F931F93CF93DF934C016B018B0123
:102FB00097E7692E712CC7E7D0E06815790549F0CD
:102FC0003401EB016815790514F03B01E40107E7D2
:102FD00010E05301AC1ABD0A7501B7FE03C08FEFB4
:102FE000E81AF80AF594E7946C167D0694F040E030
:102FF000BE01C801C814D90411F4B801CE010E9461
:103000007717F7FE04C001501109EA0CFB1C21964A
:10301000EBCFDF91CF911F910F91FF90EF90DF9059
:10302000CF90BF90AF909F908F907F906F900895BA
:103030002F923F924F925F926F927F928F929F92C8
:10304000AF92BF92CF92DF92EF92FF920F931F93B6
:10305000CF93DF93CDB7DEB72A970FB6F894DEBFD4
:103060000FBECDBF9A8389836A3061F5DC01559626
:103070008C91B8E08B9F90011124E981FA818189BC
:103080009289820F931F928B818B108A178681E021
:1030900090E02A960FB6F894DEBF0FBECDBFDF9149
:1030A000CF911F910F91FF90EF90DF90CF90BF9045
:1030B000AF909F908F907F906F905F904F903F90D8
:1030C0002F9008956D3019F329813A813A87298725
:1030D000D9011F96AD90BC90B0E8AB16B1040CF0CE
:1030E0007BC0F901C188D288F0E4CF16D1040CF07E
:1030F00073C0D90155966C90559745E09501649E33
:10310000200D311D1124121613060CF065C0262C5B
:10311000312C910153E0220F331F5A95E1F72C0D0A
:103120003D1D121613060CF057C05496BC91BB837C
:10313000E985FA85F389FC83649FB00111249B0122
:103140002458304F3A832983712CE981FA81849184
:10315000F5E07F1201C080E0460138E0532E282FB1
:1031600030E03E832D834C8080FF4B80411004C0B3
:103170003B818C813817E1F010E000E00615C0F4C7
:10318000D501A00FB11FB887AF83F12CE12CE61455
:1031900060F4B701680D791D442D8F8198850E94D8
:1031A0007717BFEFEB1AFB0AF2CF0F5F1F4FE6CF87
:1031B0008D819E81959587955A94820C931C511010
:1031C000CECF7394E981FA813196FA83E983A20C18
:1031D000B31CF6E07F12B9CFA985BA8555962C911C
:1031E0005597422F50E01F968D919C91B6E02B9FF2
:1031F000800D911D1124E985FA85908B878726899A
:10320000222309F444CF6AEF64039001659F300DD7
:10321000112420583F4F281739070CF038CFDF0111
:103220000190F081E02D0190F081E02D6AE0CD0168
:1032300009952DCF0895089590E080E00895FC0150
:1032400083818A3334F4843354F4883164F480E025
:103250000895803434F08B37D4F78DE0089585E0FD
:10326000089587E0089581E00895FC0183818A3301
:1032700034F4843354F4883164F480E00895803465
:1032800034F08B37D4F789E0089585E0089588E01D
:10329000089581E00895FC018381803310F080530C
:1032A000089580E00895FC01238141815281240327
:1032B000C001259F900D112460E670E00E94B53496
:1032C000CB01C99620342CF42A334CF4243324F453
:1032D00008952B373CF00895CB01C7960895CB0194
:1032E000C6960895CB01C39608950F931F93CF936D
:1032F000DF938C010E945319EC01C8010E9435191B
:103300008C0F9D2F911D97FD04C081E0C837D1051A
:103310000CF080E0DF91CF911F910F910895FC0197
:103320009481907F67FD04C06F70692B648308955A
:1033300098606770FACFFC01948180E16802900187
:1033400011249F7067FD03C0922B948308959068A9
:103350002077FACFFC01848183FF02C0806F08953B
:103360008F700895FC019481892F82958F7097FD4D
:10337000806F0895CF92DF92EF92FF920F931F9389
:10338000CF93DF93EB017B0124E0E20EF11C8B0174
:103390006C01C61AD70AC601800F911F0E941C3407
:1033A000F80181938F01EE15FF05A9F7CE01DF919A
:1033B000CF911F910F91FF90EF90DF90CF900895E4
:1033C0000C941C34EF92FF920F931F93CF93DF93D3
:1033D00000D000D0CDB7DEB78B0198E0899F700197
:1033E0001124C701825C9E4F0E94E019F80180837E
:1033F000C701815C9E4F0E94E019F8018183C701DB
:10340000805C9E4F0E94E019F8018283C7018F5BA8
:103410009E4F0E94E019F801838319821A821B8251
:103420001C82BE016F5F7F4FC7018E5B9E4F0E9463
:10343000BA1989819A81AB81BC81F8018483958313
:10344000A683B7830F900F900F900F90DF91CF91CD
:103450001F910F91FF90EF900895E2E4F7E082EA68
:1034600097E01582168238968E179F07D1F7109233
:1034700025071092280710922B0710922E07109202
:103480003107109234071092370710923A071092C2
:103490003D0710924007109222071092150882E013
:1034A00080930F0810921A0810921C0810921B08A3
:1034B0000E94C43323E030E040E050E00E94323408
:1034C0006E5F7F4F8F4F9F4F60931E0810921F08B3
:1034D0000895FC0101900020E9F73197AF01481BE6
:1034E000590BBC018AEA97E00C9447138F929F9284
:1034F000AF92BF920F931F93CF93DF93CDB7DEB7F9
:10350000A1970FB6F894DEBF0FBECDBF19A242300F
:1035100008F44AE08E010F5D1F4F842E912CB12CD0
:10352000A12CA50194010E946434E62FB901CA01BF
:10353000EA30F4F4E05DD801EE938D01232B242BC7
:10354000252B79F790E080E0109719F0CD010E94CB
:10355000691AA1960FB6F894DEBF0FBECDBFDF91FA
:10356000CF911F910F91BF90AF909F908F90089532
:10357000E95CE1CFAF92BF92CF92DF92EF92FF92E0
:103580000F931F93CF93DF9360911E0870E090E03C
:1035900080E04AE00E94761A84EE92E00E94691A66
:1035A00060911F0870E090E080E04AE00E94761A87
:1035B00080911F088F5F80931F0890911E088913C8
:1035C00081C00E94C43322E030E040E050E00E941D
:1035D000323424E3C22EC60E84EE92E00E94691AB1
:1035E0006C2D70E090E080E04AE00E94761A86EE52
:1035F00092E00E94691AEC2DF0E0EE0FFF1FE05BF5
:10360000FD4FE080F180F701A490809115088A0DAC
:103610008093150880911D08863330F48E5F8733C0
:1036200009F486E380931D08B12C01E010E082EAE2
:10363000C82E87E0D82EAB1409F45DC0C2E4D7E0F1
:103640008D81811152C0F701E00FF11F8491E88153
:10365000E07FE82BE883F8013196EE0DFF1DE49141
:103660000E2E000CFF0BFA83E983F8013296EE0D63
:10367000FF1DE491EB83F8013396EE0DFF1D64917D
:10368000CE010E949B19F8013496EE0DFF1D649146
:10369000CE010E948F19F8013596EE0DFF1D849121
:1036A00098819F7120E2829FF0011124E92BE88329
:1036B000F8013696EE0DFF1D095F1F4FE491ED8373
:1036C000B394B9CFC0901D08D12CF12CE12CC114BA
:1036D000D104E104F10409F47FCF0E94C433A701AF
:1036E00096010E9432346B0177CF2896CC16DD0606
:1036F00009F0A6CFE5CF8091100896EF899F802D25
:1037000011248C598536B8F084E690E09093170820
:103710008093160880911A088B0D80931A088B2DC0
:10372000DF91CF911F910F91FF90EF90DF90CF909D
:10373000BF90AF900895823340F782E3E6CF2F9297
:103740003F924F925F926F927F928F929F92AF9231
:10375000BF92CF92DF92EF92FF920F931F93CF937E
:10376000DF93CDB7DEB7EB970FB6F894DEBF0FBE91
:10377000CDBF86EA0E94F01685E0E2E1F1E0DE01CD
:103780009F9601900D928A95E1F720910C012CAB48
:103790002D3009F4D8C02091A807822F022E000CEA
:1037A000990B97FF03C0919581959109FE01E80F50
:1037B000F11D87FDFA959091EC0287A598133DC005
:1037C00081E012160CF08FEF30910F08082E000CDC
:1037D000990B830F911D37FD9A9565E070E00E946B
:1037E000B53487FD8BC080930F081092EC02822FB6
:1037F00027FD8F5F8595E2E4F7E09581953041F4F0
:103800009381980F99370CF098E797FD90E0938398
:10381000389637E0E23AF30781F7E4E2F7E022E492
:1038200037E09181992329F0980F913408F068C00E
:10383000918333962E173F07A1F78091EC028F5F9B
:103840008093EC028CA98D7F843009F47CC0809138
:103850001B0890911C08009729F0019790931C0871
:1038600080931B082091270890912808822F6CE3F1
:1038700070E00E94A134892B39F48091A607882337
:1038800019F081508093A60720FD5DC002E417E087
:10389000D80115968C911597853009F04DC0169674
:1038A0008C911697882319F0815016968C93F80105
:1038B000808190E0B5E095958795BA95E1F78130E4
:1038C00009F4AEC1F8F0823009F4EBC1833009F499
:1038D00023C2C8010E94B219F80121813281280F48
:1038E000311D87FD3A9532832183C8010E94AA19B0
:1038F000D80113969C911397890F8FC18B5F73CF5B
:10390000118297CFC8010E94B21987FF57C1D80111
:1039100011962D913C91213B3F4F0CF458C1D80199
:1039200011962D913C911297280F311D87FD3A95E4
:1039300012963C932E931197085F1F4FB7E0023AFF
:103940001B0709F0A5CF83E2E7E1F1E0DE01119664
:1039500001900D928A95E1F7A0900F08E7E0AE9EE6
:103960005001112402E010E0F501E00FF11F329741
:1039700021E030E02C0F3D1FE20FF31F20812C5F70
:10398000E02EC80195958795F82EC22ED12C41E0E6
:10399000B6018F2D90E00E947717FE0C30E83F159E
:1039A000B0F70F5F1F4F09301105F1F662E477E0C1
:1039B0007FAB6EAB5B01FEE12F2E312CD50115964E
:1039C0000C9115970023A1F013961C9118511835EE
:1039D00008F0E3C2C5010E947519882309F4DDC20D
:1039E000053009F415C208F0DDC1013008F078C2D5
:1039F000F8E0AF0EB11C22EA37E02A153B05F1F6DC
:103A000085E0EAE3F1E0DE019A9601900D928A9555
:103A1000E1F7E091A907EF3009F0D2C38091A80740
:103A2000282F082E000C330B37FF03C0319521954A
:103A30003109FE01E20FF11D27FDFA9522A5882329
:103A400009F4AAC30CF066C38C3F0CF080C36091EC
:103A50002207662341F070E08091210721E045E0D4
:103A600090E00E94801764E277E079AF68AF32E4BB
:103A7000632E37E0732E6B01D60111968C9111974E
:103A8000882321F1882E912C0C9110E0803430F4A1
:103A900021E042E0B401C8010E94F816B4016F5F52
:103AA0007F4F603471052CF421E042E0C8010E9490
:103AB000F81621E042E0B401C8010E94801721E01D
:103AC00042E0B401C80101960E948017B3E0CB0E1A
:103AD000D11C6C147D0481F6ECA9E73049F4809187
:103AE000270880FD05C0809111038F5F809311032B
:103AF00020E046E658E070E060E082E790E00E9457
:103B0000D316FE01B49686E0DF011D928A95E9F78F
:103B10006091110870911208809113089091140817
:103B20008F014E01BAE28B0E911C2AE0422E512CDD
:103B3000612C712CA30192010E946434F8016193FD
:103B40008F01B901CA018E169F06A1F7840188244E
:103B50008394912CD8012E918D0142E358E0B40159
:103B60008BE790E00E94D316B5E08B0E911CEFE13D
:103B70008E16910479F71091A2078CA98D7F84305D
:103B800009F04BC38091120380FF2FC3812F880F50
:103B9000880F012F081B000F005C11160CF055C395
:103BA000602F002E000C770B20E04BE258E08BE7F3
:103BB00090E00E94D31611500A5FEFCF882339F0AE
:103BC000F80121813281203531050CF4A8CE682F0F
:103BD0006195C8010E949B19C8010E94AA1987FF1C
:103BE0000AC0F801938119166CF0682F6195C8011D
:103BF0000E948F19A1CE8823C1F3D80113969C91FE
:103C000098379CF7F80163819091A80719161CF466
:103C100087FD8F5F8595860FD80113968C938CCE88
:103C2000C8010E94B21987FF0CC0F80121813281BE
:103C3000213B3F4F7CF4682F6195C8010E949B197E
:103C400012C08823C1F3D80111962D913C912035E3
:103C500031058CF7F80121813281280F311D87FD54
:103C60003A9532832183C8010E94AA1987FF0AC0AE
:103C7000D80113966C9116160CF0B7CF860FF80189
:103C800083835ACE882309F4B0CFD80113966C9160
:103C900068370CF0AACF9091A80719167CF7859584
:103CA000EDCFC8010E94B21987FF0DC0D80111964F
:103CB0002D913C91213B3F4F74F4682F6195C801D1
:103CC0000E949B1915C08823C1F3F801218132811C
:103CD0002035310594F7D80111962D913C9112971A
:103CE000280F311D87FD3A9512963C932E9311971C
:103CF000C8010E94AA19181624F4F8019381983774
:103D000024F0D80113961C9217CE2091A807121602
:103D10000CF48595890FB3CF87818F5F8330B9F01D
:103D20008783D80117968C91811106CEC8010E9415
:103D3000B21987FF0EC0F80121813281213B3F4F2C
:103D40008CF4682F6195C8010E949B1914C01782DA
:103D5000E8CF8823B1F3D80111962D913C912035FD
:103D600031057CF7F80121813281280F311D87FD53
:103D70003A9532832183C8010E94AA1987FF06C0A1
:103D8000D80113969C911397191644F0F8011582E7
:103D900080911508815080931508CECD980F139609
:103DA0009C93CACD0E3008F023CE8AEFF82EF00E89
:103DB000F50180818F70D82E183258F4E12FF0E091
:103DC000E15CFE4F8081823009F4A2C0833009F0AB
:103DD000BDC08091270890912808B1010E94A134AC
:103DE000E1E16E2EEAE07E2EF9E48F2EFBE09F2EBD
:103DF0000CE71CE077E7472E7AE1572E8F3008F466
:103E0000ADC008E41DE059ED452E59E1552EA6C080
:103E1000183208F04BC0E12FF0E0E15CFE4F8081EA
:103E2000F12C04E11EE0EDE18E2EEFE09E2E8130BC
:103E300091F0F12C09E11EE05EE7852E5EE0952E03
:103E4000813048F08230C1F0833081F1F12C10E0F4
:103E500000E0912C812CC5010E944B19E82EC50170
:103E60000E9453196E2D70E0CC24C394EF2C2F2D9B
:103E7000A4010E94A414BCCDF50180818F70F82E9E
:103E80008091270890912808B1010E94A13408E18F
:103E90001DE07AE1872E7EE0972E8F30E0F204EE6F
:103EA0001DE04CE4842E4EE0942ED5CFD5018C91AC
:103EB0008F70F82E8091270890912808B1010E94F8
:103EC000A1340CE71CE067E7862E6AE1962E8F305E
:103ED00010F208E41DE039ED832E39E1932EBBCFBB
:103EE000C5010E944B19182FC5010E945319FF24C8
:103EF000FA94F00EEF2DF0E0EE0FFF1FE959FE4FA0
:103F000040815181612F70E020E00E94C31670CD86
:103F10008091270890912808B1010E94A134B1E056
:103F20006B2EBBE07B2E1BE3812E1CE0912E08E163
:103F30001DE0AAE14A2EAEE05A2E8F3078F004EE52
:103F40001DE06CE4462E6EE0562E08C0712C612CEC
:103F5000912C812C10E000E0512C412CC5010E94D5
:103F60004B19E82EC5010E9453196E2D70E0CC2428
:103F7000C394ED2C2D2DA2010E94A414C5010E9412
:103F80004B19182FC5010E945319612F70E0EF2CB7
:103F900083012F2DA40101976CCF053009F028CDA6
:103FA000C5010E944B19182FC5010E94531920EC1E
:103FB000210F223308F046C097FF1EC040E06BE39C
:103FC00070E090E080E00E945F1721E043E06CE346
:103FD00070E090E080E00E94801721E043E06FE312
:103FE00070E090E080E00E94F81640E06FE370E03F
:103FF00084E090E00E945F17C5010E94531940E0E1
:10400000823791050CF46DC06BE370E081E790E0BE
:104010000E945F1721E043E06CE370E081E790E0ED
:104020000E94801721E043E06FE370E08EE690E0AD
:104030000E94F81640E06FE370E08DE690E00E9489
:104040005F17D6CC97FF22C0612F70E06E5F7F4F65
:1040500040E090E080E00E947717C5010E944B1974
:10406000682F70E06D5F7F4F21E046E090E080E0D8
:104070000E948017C5010E944B19682F70E0675F8E
:104080007F4F40E090E080E00E947717C5010E94DA
:104090005319823791050CF4ABCCC5010E944B1922
:1040A000682F70E06E5F7F4F40E081E790E00E94F4
:1040B0007717C5010E944B19682F70E06D5F7F4F25
:1040C00021E046E081E790E00E948017C5010E9450
:1040D0004B19682F70E0675F7F4F40E081E790E009
:1040E00016C06FE370E002960E947717C5010E9428
:1040F000531921E046E06FE370E003960E94F81642
:10410000C5010E94531940E06FE370E009960E94D8
:1041100077176ECC85300CF09ACCE091A307F0E0D5
:10412000622F70E080912708909128080E94A134A6
:10413000622F0E9495342695CC24C394E12C9217CB
:10414000C8F509E119E020E047E359E019C0E09122
:10415000A307F0E0622F70E0809127089091280873
:104160000E94A134622F0E9495342695CC24C394DA
:10417000E12C921758F403ED19E020E041EF59E0EB
:1041800060E370E0CF010E94A41461CC05E919E05E
:1041900020E043EB59E0F4CF8091A307CC24C394F3
:1041A000E12C07E519E020E045E759E060E370E025
:1041B00090E0E9CF0BED18E020E049EF58E0E0CFC8
:1041C000EB5048ED58E0E43038F4F0E0EE0FFF1F1C
:1041D000E959FE4F408151818091A30720E060E3BF
:1041E00070E090E00E94C31632CC1150812F880FEE
:1041F000880F012F081B000F005C111634F5602F8B
:10420000002E000C770B20E04BE258E08BE790E0AB
:104210000E94D31611500A5FF0CF1150812F880FE2
:10422000880F012F081B000F005C111674F4602F1B
:10423000002E000C770B20E04BE258E08BE790E07B
:104240000E94D31611500A5FF0CF20E04DE058E0F5
:1042500070E060E084E790E00E94D3166091A607CA
:1042600070E06A5F7F4F8CE190E00E94C717609119
:10427000A407162F110F20E04FEE57E067E270E021
:1042800084E790E00E94D316612F70E0625D7F4F5B
:104290008DE390E00E94C717FCA9F63009F0FEC03C
:1042A00080912708909128086CE070E00E94A1346A
:1042B000892BE9F4809110039091EB028917B8F4EF
:1042C0008F5F809310038091110890911208A09144
:1042D0001308B09114088C509E4FAF4FBF4F80937E
:1042E000110890931208A0931308B093140800E0EB
:1042F00026E14EE462E170E083E190E00E94A517C0
:1043000020E049E057E063E170E084E190E00E9442
:10431000C31610911003212F30E03595279545E104
:104320005BE16EE170E08AE490E00E94C31625E054
:10433000129FC00111246AE070E00E94B534282F5A
:1043400045E15BE16EE170E08FE490E00E94C3160E
:1043500020E045E15BE16EE170E084E590E00E94E1
:10436000C31620E045E15BE16EE170E089E590E095
:104370000E94C31680910C018D3091F400E02DE075
:1043800041E265E170E08CE290E00E94A51720E038
:104390004FEE55E066E170E089E290E00E94C316BE
:1043A0008091EA028F5F813608F0DEC08093EA02D6
:1043B00080911B0890911C08892B09F4DCC0909116
:1043C000EA02903308F0D3C0892F90E002969595C9
:1043D000879593E894BD809587BD81EF8093800099
:1043E0001092880010928A008091EA02803348F48B
:1043F00020E042EE55E06FE170E085E790E00E943A
:10440000C3168091A9078F3009F0E2C010910C010A
:104410001D3009F4C4C40E94E81684FF05C00E9440
:10442000F11081111092EC020E94E81687FF05C07E
:104430000E94CF1081111092EC020E94E81685FFB5
:1044400007C08091A307882319F081508093A307A8
:104450000E94E81686FF07C08091A307863618F4ED
:104460008F5F8093A3071D7F143009F49AC088E002
:104470000E941311882309F48AC0809122078111B8
:1044800090C08DE2809322078091A307895F80937B
:1044900021078EE69FE00E94911483C03CA934302E
:1044A00009F068CF80911203823009F44DC0982F33
:1044B0009D7F943009F451C0883009F44EC080913A
:1044C000100800E02DE0813021F48091A2078430B3
:1044D00061F14EE265E170E083E290E00E94A51791
:1044E00020E04FEA56E066E170E084E290E00E944E
:1044F000C316809110081AE0612F0E949534282F6E
:1045000045E15BE169E170E083E490E00E94C3165D
:1045100080911008612F0E949534292F45E15BE1BD
:1045200069E170E088E490E023CF45E365E170E065
:104530008EE190E00E94A51720E047E456E066E196
:1045400070E08FE190E014CF8091EF02811112CFE3
:104550008DE396E00E9491140DCF8091EF028111BE
:1045600009CF83E396E0F6CF1092EA0221CF969529
:1045700082E3891B2ECF83E884BD8FEF87BD81EF57
:10458000809380001092880010928A003ACF809128
:104590001B0890911C08892B21F00E94E81683FDCE
:1045A0006CCF0E94E81684FD13C00E94E81687FDB8
:1045B0000FC080912708909128088F709927892B28
:1045C00039F48091A80718160CF0BBC00E94F110B6
:1045D00010910C01812F8D7F843059F084E00E946E
:1045E0001311882331F08DE0173009F087E08093B4
:1045F0000C0180910C01982F9D7F943009F44FC3DA
:104600008D3009F44CC3909122079B3008F49FC071
:104610009550909322074091A807E4E26E2EE7E0C0
:104620007E2ED30111962C9111972223E1F0129640
:104630008C911297382F35953595359535955C9138
:10464000350F3C93382F387014160CF484C0332384
:1046500009F47FC0806F820FF3018183F3018181B0
:10466000813408F01182F3E06F0E711CC614D70478
:10467000C1F6992309F418C140902107512C9201E9
:10468000215031093DAB2CAB292E312C610135E095
:10469000C31AD10802E417E0B2016E5F7F4F7BAF0F
:1046A0006AAFD80115968C911597853009F0C2C074
:1046B00016968C918111BEC0C8010E9453194C01FD
:1046C000C8010E944B19E82EC8010E943519F82E26
:1046D000C8010E941F19EAADFBAD8E169F060CF0B3
:1046E000A9C08F0C911C2CA93DA9281539050CF0E7
:1046F000A1C0F12CE214F3040CF09CC0E80EF11CF4
:10470000CE14DF040CF096C0E4E0D8011596EC93CB
:1047100084E29FE00E94911420911B0830911C08B4
:10472000D8018C91982F9F70923009F464C000F5E5
:10473000992309F454C0913009F458C090E080E006
:1047400065C0882309F444CF0E94CF1041CF90E088
:1047500060CF8F7080CF332349F0806F87FD8F5FEC
:104760008595820FD30111968C9378CF8F70F6CFF9
:10477000933009F447C0E2E4F7E0912C812C9430A7
:10478000E9F695819111CEC173E0880C991C7A9558
:10479000E1F7F401EE5BF84F4F018081807185668F
:1047A000808325E02583D80111968D919C911297E5
:1047B0009283818313968C9183836FEFCF010E9444
:1047C0008F192AE0F401268380911A088F5F809365
:1047D0001A08809115088F5F8093150810C086E92C
:1047E00090E0232B99F08CE291E010C0232BD9F3B9
:1047F00088E592E00BC084E893E0232B39F482EC47
:1048000091E004C080EB94E0232B91F340911108D8
:10481000509112086091130870911408480F591FA5
:10482000611D711D40931108509312086093130885
:1048300070931408085F1F4FA016B10609F031CF1E
:1048400004E217E022E0420E511CD80111962C918F
:104850001197222321F18C9190E084159505FCF4A9
:10486000AC014E5F5F4FECA9FDA9E417F507BCF45E
:1048700030E0221533059CF42E5F3F4FC216D3065D
:1048800074F411961C9220E04DE15FE06EEF7FEF33
:1048900002970E94C31687E19FE00E9491140D5F6A
:1048A0001F4F6016710689F68091A9078F3009F0B5
:1048B0008FC08090A307912C6401FFEFCF1ADF0A0D
:1048C00002E417E014012EE0220E311CD8011596E7
:1048D000FC901597FF2009F440C013968C918851E5
:1048E0008835D8F5C8010E9475198823B1F1B5E063
:1048F000FB1233C0C8010E944B19E82EE4E1E8170F
:1049000060F5C8010E94531901962C01C8010E944C
:104910003519F82EC8010E941F19D8019C91FA94EC
:10492000FA9492012F0D311DC216D3069CF4421445
:10493000530484F42E2D30E02F5F3F4F4EEF480F8D
:10494000420F532F511D4533510524F02C333105AF
:104950000CF401C19F7EF8019083085F1F4FA016E1
:10496000B10609F0B3CF04E217E0FEE08F0E911C10
:1049700050E1F52E6EE0E62ED80111968C9111973C
:10498000882309F12C9130E0A9014E5F5F4FC416D6
:10499000D506CCF428153905B4F48353893098F43E
:1049A00087EA0E94F016F0928A008091A407F8012D
:1049B0001182882309F407C181508093A4078FE8EE
:1049C0009EE00E9491140D5F1F4F60167106A1F6C4
:1049D0004091270850912808CA0183709927892B94
:1049E00051F520911508E2E4F7E09581915094305B
:1049F00020F49583911101C021503896AE16BF0660
:104A0000A1F7209315089091A90791509E3098F432
:104A10009093A90791110FC09091A207992319F0C3
:104A200091509093A2078091A207882309F4D0C0E7
:104A300083E080930C01CA0163E070E00E94A1341E
:104A4000892B91F4AEA9BFA915968C911597863044
:104A500018F0815015968C93EEA9FFA93896FFABFC
:104A6000EEABAE16BF0671F780911008835E880F1B
:104A7000C82ED12CF12CE12C09F0ACC0F12CE12C8A
:104A80003CE0432E512C612C712C4CE0842E912C57
:104A9000A8ADB9AD11968C91811135C00E94C43377
:104AA000A30192010E943234D12CC12CA62EB12C2C
:104AB000C5018C0D9D1DB4010E94B5348C0123E00D
:104AC000000F111F2A95E1F70E5B184FF801808146
:104AD0008F70843088F4C8010E94AA1987FD0CC029
:104AE000D80115968C911597853031F413968C91D9
:104AF0008B538D3108F4ECC0BFEFCB1ADB0AECE02E
:104B0000CE16D104A9F6FFEFEF1AFF0A28AD39AD92
:104B10002D5F3F4F39AF28AF3AE0E316F10409F0BB
:104B2000B7CF63C03FEF831A930A38966CE08616BE
:104B3000910409F026CE80718566D8018C93E5E05A
:104B40001596EC931597F5E01696FC936FEFC80158
:104B50000E948F1954CE892F8F708530A8F0853030
:104B600009F0FBCE15961C9281EA9EE00E949114FA
:104B7000E4EFF1E0F0931C08E0931B088091150826
:104B8000815080931508E9CE94FDE7CE90619C9307
:104B9000E4E01596EC9387EA0E94F016F0E1F093BA
:104BA0008A008091A407882341F081508093A40754
:104BB00085E09FE00E949114D0CE2EE02093A907BB
:104BC0008BEB9EE0F7CFE092A9078BEB9EE0F9CE4E
:104BD00088E02FCF0E94C433A70196010E9432348F
:104BE000672B682B692B09F449CF8091A6078111A7
:104BF0000BC08091A9078F3039F48EE08093A9070C
:104C00008BEB9EE00E9491148091160890911708FA
:104C1000009729F0019790931708809316088091C8
:104C2000160890911708892BD1F4809115088930C6
:104C3000B0F4809110088B5F880F90911A08981734
:104C400070F40E94BA1A682F6150770BFB01EE0FC7
:104C5000FF1FE159FE4F808191810E949114809144
:104C60000C018730E1F480911508811118C0809102
:104C7000100895E0980F990F20911A08291778F0DD
:104C80009091A6079A3008F099E09093EB02109269
:104C900010038F5F8093100885E080930C01EB96E2
:104CA0000FB6F894DEBF0FBECDBFDF91CF911F913D
:104CB0000F91FF90EF90DF90CF90BF90AF909F90BB
:104CC0008F907F906F905F904F903F902F900895BE
:104CD000C8010E945319B82EC8010E943519869543
:104CE000B80E6701CC0CDD1CC6018E0D9F1D9C010A
:104CF0002C5D384F4901D901BC92C8010E944B1963
:104D0000A82EC8010E941F198A0DF4018183C801D1
:104D10000E94AA198F5FD40112969C9187FD30C022
:104D2000907F8F70792E782AC6018E0D9F1DFC0111
:104D3000EC5DF84F4F0172828091A30790E00796D7
:104D40009C012B1931095901C8010E944B19272DCB
:104D50002F7060E370E0681B7109C5010E94B534D3
:104D60006115710589F077FD03C067307140A4F0CB
:104D7000F601EE0DFF1DEC5DF84F206F228307C09A
:104D8000977098608770CECFD40112962C9381E8EB
:104D90009EE00E94911429CF2061F401EFCF1DE025
:104DA0001DCC0E94CF341F93CF93DF93EC01162FBD
:104DB0000E941C34181739F0612FCE01DF91CF917A
:104DC0001F910C942434DF91CF911F9108959F92ED
:104DD000AF92BF92CF92DF92EF92FF920F931F9309
:104DE000CF93DF935C017B018B01D0E0C0E0F80141
:104DF00091908F016501CC0EDD1EC6010E941C340E
:104E0000981621F0692DC6010E9424342196C430E1
:104E1000D10569F7C701DF91CF911F910F91FF90E5
:104E2000EF90DF90CF90BF90AF909F900895CF927A
:104E3000DF92EF92FF920F931F93CF93DF9300D0F7
:104E400000D0CDB7DEB7082F8CE391E00E94E019C7
:104E5000182F8DE391E00E94E019011105C01A346A
:104E600019F4863409F43DC019821A821B821C820F
:104E70006AE48CE391E00E94D32666E48DE391E03E
:104E80000E94D32688E8C82E83E1D82EE12CF12C8D
:104E90000EE311E060E0C8010E94D32660E0C80183
:104EA00001960E94D32660E0C80102960E94D32694
:104EB00060E0C80103960E94D326C982DA82EB82A1
:104EC000FC82BE016F5F7F4FC80104960E94E726F7
:104ED000085F1F4F88EEC81A83E0D80AE108F1087E
:104EE000C9F60F900F900F900F90DF91CF911F9107
:104EF0000F91FF90EF90DF90CF9008951F920F9247
:104F00000FB60F9211248F939F938091E10090919F
:104F1000E100937F9093E10083FF0FC01092E900BE
:104F200091E09093EB001092EC0092E39093ED00EF
:104F30001092200398E09093F00082FF22C093E04B
:104F40009093E9009091F200992319F09AE39093DD
:104F5000E80090910003992341F090910003915053
:104F600090930003911101C05D9A90911F039923C2
:104F700041F090911F03915090931F03911101C034
:104F8000289A84FF18C08091E2008E7E8160809311
:104F9000E2008091E1008F7E8093E1008091010327
:104FA0008E7E8061809301039F918F910F900FBE41
:104FB0000F901F90189580FFF7CF8091E2008E7EB2
:104FC00080618093E2008091E1008E7E8093E10019
:104FD000809101038E7E8160E5CF1F920F920FB604
:104FE0000F921124CF92DF92EF92FF920F931F93B3
:104FF0002F933F934F935F936F937F938F939F93E1
:10500000AF93BF93EF93FF93CF93DF93CDB7DEB70B
:105010006C97DEBFCDBF1092E9008091E80083FF5E
:1050200025C068E0CE0145960E94341282EF80933D
:10503000E8008D8987FF39C09091E80090FFFCCF90
:10504000982F907609F034C19E894F89588D2F8909
:10505000F88C911131C0803861F580910203809302
:10506000F1001092F1008EEF8093E8006C960FB67D
:10507000F894DEBF0FBECDBFDF91CF91FF91EF91CE
:10508000BF91AF919F918F917F916F915F914F9160
:105090003F912F911F910F91FF90EF90DF90CF9054
:1050A0000F900FBE0F901F9018959EEF9093E80001
:1050B000C7CF1092F100D5CF913059F48111D3CFE1
:1050C0004130510581F6809102038D7F8093020368
:1050D000CACF933049F48111C6CF4130510519F63A
:1050E000809102038260F2CF953041F48091E80014
:1050F00080FFFCCF20682093E300B5CF963009F005
:10510000A9C00B8D1C8D22E01092E9001092FE02C6
:105110001092FD02F2122EC01092FC021092FB02BD
:105120000E9403121F8299E09983FA8291E09E8384
:1051300090EA98879AEF99872091FD023091FE02BC
:10514000275F3F4F3C832B838D831092E9001092A1
:10515000FE021092FD021093FC020093FB0249E054
:1051600050E0BE016F5F7F4F80E00E94DD110E9422
:10517000031279CF1093FC020093FB020E94681186
:10518000DC0112960D911C910115110509F451C114
:10519000D801ED91FC910480F581E02DBE016B5E9C
:1051A0007F4FC8010995009709F03EC1F8010085BD
:1051B0001185EACFF3E0FF120EC08F89882309F42E
:1051C00040C0823061F440E860E180EE94E10E94EA
:1051D000AA11811148CF81E28093EB0047CF813043
:1051E00029F440E86BE084ED94E1F1CF833099F746
:1051F0000E946811DC011296ED90FC908E010F5F09
:105200001F4F6801E114F10479F0D701ED91FC9191
:105210000680F781E02DB801C7010995080F111D1F
:10522000F701E084F184EECFD8011C92F6010190E1
:105230000020E9F73197BF016C197D0940E0C601F4
:10524000C6CF6EEB74E1FB01449150E080E80E9410
:10525000DD1109CF973009F4BECF983021F481E0F9
:105260008093F10000CF993009F0FDCE837009F0F2
:10527000B2CFE8E7F1E081E031E096E3219122232B
:1052800071F08093E9003093EB00DF0111972C91CE
:105290002093EC009093ED008F5F873079F78EE7D5
:1052A0008093EA001092EA008F8980932003DBCE7E
:1052B0008B8D9C8D1092E9001092FE021092FD02DF
:1052C0009093FC028093FB02898D811192C08E899C
:1052D0009D89913A49F4813209F07DCF47E050E051
:1052E00064E071E080E0B3CF913209F074CF833293
:1052F00069F48F89988DB0E0A0E0809300019093CD
:105300000101A0930201B0930301ADCE803269F494
:105310008091E80082FFFCCF67E084E091E00E948A
:1053200034128BEF8093E8009ECE823209F09BCE40
:105330008F8980930B01EEEFFFE7859194918B3F6E
:105340009C4D51F1E0E0F8E080910401909105015D
:10535000A0910601B0910701803B9440A105B105E1
:10536000F1F480910B0180FD1AC0EE3F8AE0F8074E
:1053700089F587E797E79183808380916000809328
:10538000FF0288E19BE00FB6F894A8958093600037
:105390000FBE9093600067CEEEEFFAE0D5CF80812C
:1053A00091818737974709F05ECEA895809160007C
:1053B0008861809360008091FF0280936000EE3FDF
:1053C0002AE0F20789F08091FE0A9091FF0A91830A
:1053D000808349CE808191818737980751F29093DD
:1053E000FF0A8093FE0AC5CF1092FF0A1092FE0AB0
:1053F0003ACE0E946811DC0112960D911C910115A4
:10540000110509F4E8CED801ED91FC910190F081ED
:10541000E02DBE016B5E7F4FC8010995811123CE3F
:10542000F80100851185EBCF181619060CF41BCE78
:10543000D2CEF1E0FF12BECE62EC74E104CF1F9237
:105440000F920FB60F9211242F933F938F939F9338
:10545000AF93BF938091040390910503A09106033D
:10546000B09107033091F60223E0230F2D3758F552
:105470000196A11DB11D2093F60280930403909321
:105480000503A0930603B09307038091F702909160
:10549000F802A091F902B091FA020196A11DB11D86
:1054A0008093F7029093F802A093F902B093FA0266
:1054B000BF91AF919F918F913F912F910F900FBE10
:1054C0000F901F90189526E8230F0296A11DB11D7D
:1054D000D2CF1F920F920FB60F9211242F933F93AA
:1054E0004F935F936F937F938F939F93AF93BF93EC
:1054F000EF93FF938091F2029091F302A091F40256
:10550000B091F502892B8A2B8B2B09F440C0809136
:10551000F10281110BC088B190E4892788B980918C
:10552000F002882319F088B1805888B98091F2027E
:105530009091F302A091F402B091F50218161906A9
:105540001A061B069CF48091F2029091F302A0913E
:10555000F402B091F5020197A109B1098093F2021A
:105560009093F302A093F402B093F502FF91EF91B0
:10557000BF91AF919F918F917F916F915F914F916B
:105580003F912F910F900FBE0F901F9018950E9482
:10559000EC13ECCF0F931F93CF93DF938C0181E03B
:1055A00090E00E94E01980FF32C08AE090E00E9403
:1055B000E0199FEF980F9E3F50F522E330E0D801AD
:1055C00050963C932E931F9728E330E052963C93DD
:1055D0002E935197CBE0D0E0D801ED91FC91019052
:1055E000F081E02D682FC8010995CE010E94E019D5
:1055F0002196C131D10581F780E00E941E1188EE0D
:1056000093E0DF91CF911F910F910C94E316DF91FE
:10561000CF911F910F91089504970C94CA2AEAEA3A
:10562000F7E01382128288EE93E0A0E0B0E084837A
:105630009583A683B78382EC92E0918380838FEF7A
:105640009FEF95878487E0E2F8E01382128211864B
:10565000128680E18387108617821586108A178646
:10566000128A118A81E0838B148A858B168A84EDD5
:1056700092E09183808382EE92E0958384838CEC28
:1056800090E1909309088093080880E090E8909357
:1056900007088093060846983E9A47983F9A1092CA
:1056A0001C0810921B08EAE0F8E08FEF808311825B
:1056B0001282138214820895CF93DF93CDB7DEB7A1
:1056C00063970FB6F894DEBF0FBECDBF789484B554
:1056D000826084BD84B5816084BD85B5826085BDEE
:1056E00085B5816085BD80916E00816080936E007C
:1056F000109281008091810082608093810080916E
:10570000810081608093810080918000816080931E
:10571000800080919100826080939100809191003F
:1057200081608093910080919000816080939000CF
:105730008091C10084608093C1008091C10082602B
:105740008093C1008091C10081608093C1008091ED
:10575000C30081608093C3008091C0008260809309
:10576000C0008091C20081608093C20080917A0065
:10577000846080937A0080917A00826080937A00BE
:1057800080917A00816080937A0080917A008068AD
:1057900080937A001092200310920203109201036A
:1057A0008091D70081608093D70080EA8093D800F1
:1057B00089B5806189BD89B5826089BD09B400FE63
:1057C000FDCF61E070E080E090E00E9414138091D2
:1057D000D8008F7C80618093D8008091E000807F2A
:1057E0008093E0008091E1008E7E8093E1008DE067
:1057F0008093E200559A209A81EC80937C0085B1D9
:10580000806F85B984B1877E84B984B1876E84B98D
:105810005E9A5F988AB1806D8AB9769A6E9881B3E4
:10582000806F81BB899880B38D7080BB80E58CBD13
:1058300081E08DBD85E090E00E94E3165F9A85E0EF
:1058400090E00E94E3165E985C98E1EFF4E18491A9
:105850008EBD00000DB407FEFDCF319604E1EE3F92
:10586000F007A9F75C9A81E8809364008091650055
:105870008160809365000E94E81687FF10C085EA6A
:105880000E94F0162E982F982D98809164008062C7
:105890008093640081E083BF889513BEFCCF0E9493
:1058A000E81682FF3AC02D980E94E8168478843862
:1058B000A9F42D9A88EC90E00E94E3162F986FEFE0
:1058C00082E090E00E94D32684EF91E00E94E316EC
:1058D0002F9A0E94E81684788438D9F30E94E8163B
:1058E00084718431A9F42D9A88EC90E00E94E3162B
:1058F0002E9860E082E090E00E94D32684EF91E051
:105900000E94E3162E9A0E94E81684718431D9F31E
:1059100088EC90E00E94E316C2CF2D9A84E1809338
:105920002B08809164008E7F8093640080917A00C0
:10593000806480937A0080917A0086FDFCCF00918C
:105940007800109179000E94EF12AB01BC01C801F0
:10595000B0E0A0E0DC01992788278C019D01040FAD
:10596000151F261F371FC901B8012091640021604F
:1059700020936400611571058105910511F00E9465
:10598000133482E090E00E94E019882399F13E9A56
:105990003F9A81E08093030380E00E9417275E0115
:1059A00019E0A10EB11C1E012FE0220E311C8AEF5E
:1059B000482E87E0582E8FB7F894409104035091F9
:1059C000050360910603709107038FBF80912C0837
:1059D000342F381B832F90912D08992381F0309319
:1059E0002E0810922D0880E090E0892B21F30E9470
:1059F0000000DDCF109203033E983F98CDCF9091E9
:105A00002B08391740F48F5F891768F781E083BF4F
:105A1000889513BEE8CF81E080932D0840932C0831
:105A200080912708909128080196909328088093E8
:105A300027088091290880932A080E94E8168093FD
:105A40002908E0910C01E031C0F4F0E0E65DF24D90
:105A50000C94C934802D8D2D392E9B2FCB2FE62F02
:105A6000FA2FE32F0F3027304930EB300C33E32F80
:105A70003A2D412D8FE080930C0181E00E941E1190
:105A8000B2CF90912A089095892311F010920C01C1
:105A900020E047EF5EE161E170E080E290E00E948B
:105AA000D316809127089091280860E370E00E9447
:105AB000A134883100F511E18C3008F01EE120E0BE
:105AC00040EF5EE169E170E08BE590E00E94D31663
:105AD000612F70E041E084E390E00E94771710FDB1
